:020000040800F2
:10000000D806002049010008D1150008B9110008E0
:10001000CD1500088F090008FD260008000000002B
:10002000000000000000000000000000D11C0008DB
:10003000B90900080000000065190008D91E000871
:100040006301000863010008630100086301000800
:1000500063010008630100086301000863010008F0
:1000600063010008630100086301000863010008E0
:1000700063010008630100086301000863010008D0
:1000800063010008630100086301000863010008C0
:1000900063010008630100086301000863010008B0
:1000A00063010008630100086301000863010008A0
:1000B0006301000863010008630100086301000890
:1000C0006301000863010008630100086301000880
:1000D000630100085124000863010008630100085F
:1000E0006301000863010008630100086301000860
:1000F0006301000863010008630100086301000850
:10010000630100086301000863010008630100083F
:10011000630100086301000863010008630100082F
:10012000630100086301000863010008630100081F
:10013000DFF810D000F0F4FA004800472132000840
:10014000AFF30080D80600200648804706480047E5
:10015000FEE7FEE7FEE7FEE7FEE7FEE7FEE7FEE777
:10016000FEE7FEE7511F000831010008D2B201E0AE
:1001700000F8012B491EFBD270470022F6E710B5AC
:1001800013460A4604461946FFF7F0FF204610BD05
:100190002DE9FE4F81EA030404F0004421F0004100
:1001A00000944FF0000B23F0004350EA01045ED0AE
:1001B00052EA03045BD0C3F30A54C1F30A552C443A
:1001C000A4F2F3340194A0FB0254C1F3130141F4EF
:1001D0008011C3F3130343F4801301FB024400FBBB
:1001E000034E840A970A44EA815447EA8357A4FBE2
:1001F000076802958D0A05FB07854FEA932C04FBDF
:100200000C542705029D4FEA065847EA1637B5EB0E
:1002100008056EEB070C870E920E47EA811742EA3B
:100220008312A7FB0201B6EB0B0164EB00042B0D5C
:1002300043EA0C335E1844EB1C50DA465146E7FBA8
:100240000201C5F313044FEA0B3343EA14534FEA98
:100250000432019C43EA0603A4F10C040294009CBE
:10026000CDE900B400F0C7F803B0BDE8F08F00207E
:100270000146F9E796230022114600F07FB800F00E
:10028000004230F000400AD0C10D01F56071C0F3AA
:10029000160042EA0151C20840071143704700208E
:1002A0000146704701F0004330B421F0004150EAAC
:1002B000010206D00A0DA2F56072C1F31301002AF3
:1002C00002DC30BC00207047440F44EAC104C10086
:1002D000E01830BC00EBC25000F047B830B50B4618
:1002E000014600202022012409E021FA02F59D4266
:1002F00005D303FA02F5491B04FA02F52844151E3A
:10030000A2F10102F1DC30BD2DE9F05F05460020CD
:1003100092469B4688460646814640241BE0284676
:1003200041464746224600F01CFA53465A46C01A38
:10033000914110D311461846224600F003FA2D1AB7
:1003400067EB01084F4622460120002100F0FAF930
:1003500017EB00094E41201EA4F10104DFDC4846E2
:1003600031462A464346BDE8F09F0029A8BF7047A2
:10037000401C490008BF20F00100704710B4B0FADB
:1003800080FC00FA0CF050EA010404BF10BC704776
:1003900049B1CCF1200421FA04F411FA0CF118BF90
:1003A000012121430843A3EB0C01CB1D4FEA00615F
:1003B0004FEA102042BF002010BC704700EBC35032
:1003C00010440029A4BF10BC7047401C490008BF5E
:1003D00020F0010010BC704710B5141E73F100042A
:1003E00008DA401C41F1000192185B411A4301D127
:1003F00020F0010010BD2DE9F04D92469B4611B151
:10040000B1FA81F202E0B0FA80F22032904600F0B8
:1004100099F904460F4640EA0A0041EA0B015346A7
:100420005A46084313D0114653EA010019D0C8F1C7
:100430004002504600F095F905460E465046594692
:10044000424600F07FF9084305D0012004E0204631
:100450003946BDE8F08D0020054346EAE0762C439E
:1004600037430A986305E40AA0EB08000022FD0A5E
:1004700044EA47540A3002D500200146E9E7010565
:1004800010196941DDE9084500196941BDE8F04DE1
:10049000A2E72DE9FE4F804681EA0300C00F0C461B
:1004A000009021F0004123F00045B8EB0200A94183
:1004B00005D24046214690461C460B46024623F094
:1004C0000040104347D0270DC7F30A00C3F30A5179
:1004D0000290401A019040286BDAC3F3130040F4F5
:1004E000801B0098924620B10023D2EB030A63EBF5
:1004F0000B0B01985946C0F14002504600F022F91A
:1005000006460D4650465946019A00F03AF910EB5E
:1005100008006141002487EA115284EAE7731A4314
:1005200040D0009A62B3019A012A4FEA075215DCC3
:10053000001B61EB02014FF0004202EA0752CDE9D5
:100540000042001C41F5801132462B46FFF753FF55
:1005500003B0BDE8F08F40462146F9E7001B61EB90
:100560000201001C41F5801300185B412018A2F520
:10057000001747EB030140EAD570B6196D4111E051
:100580006D084FEA360645EAC0754FEA0752001B70
:1005900061EB0201001C41F5801149084FEA30006F
:1005A0000019514132462B4603B0BDE8F04FFFF72A
:1005B00013BF0098012240000023D0EB020263EB3E
:1005C000E073009821464FEAE074B8EB000061EB5D
:1005D0000401E9E783F000435BE781F0004158E75D
:1005E0002DE9F04D81EA030404F0004B21F00045B1
:1005F00014464FF0000A23F0004150EA050220D0D3
:1006000054EA01021DD0C5F30A570246C5F313038D
:10061000C1F31300C1F30A5640F4801543F480136C
:10062000A7EB0608101BD64608F2FD3873EB050051
:1006300002D308F1010801E092185B41B8F1000F04
:1006400003DA00200146BDE8F08D00204FF4801150
:10065000064684460EE0171B73EB050705D3121BF5
:1006600063EB050306434CEA010C49084FEA3000EE
:1006700092185B4150EA0107EDD152EA030012D013
:1006800082EA040083EA0501084305D0101BAB4150
:1006900006D20122002306E000224FF0004302E0D0
:1006A0006FF0010253101AEB06004CEB085110EBEF
:1006B0000A0041EB0B01BDE8F04DFFF78DBEC1F321
:1006C0000A52C1F3130140F2FF3341F480119A4200
:1006D00002DA00200146704740F233439A42A2F208
:1006E000334202DC524200F03CB800F02BB800006C
:1006F00030B5041E71F1000404DB4FF000444042A9
:1007000064EB0101141E73F1000405DB1C464FF07D
:100710000043524263EB0403994208BF904230BD4C
:10072000064C074D06E0E06840F0010394E807003E
:1007300098471034AC42F6D3FFF7FEFCC83A0008E5
:10074000E83A0008202A04DB203A00FA02F10020EF
:1007500070479140C2F1200320FA03F319439040FF
:100760007047202A04DB203A21FA02F0002170476A
:1007700021FA02F3D040C2F1200291400843194609
:100780007047202A06DBCB17203A41FA02F043EAF1
:10079000E07306E041FA02F3D040C2F1200291403A
:1007A00008431946704721B1826842F00102826015
:1007B00003E0826822F001028260704710B50446AF
:1007C0001248844208D10121401501F0F9F80021B6
:1007D000601501F0F5F817E00D48844208D10121B9
:1007E000001501F0EDF80021201501F0E9F80BE00B
:1007F0000848844208D10121C80301F0E1F8002132
:100800004FF4004001F0DCF810BD0000002401406E
:1008100000280140003C0140014600208A6802F0A7
:1008200004020AB1012000E0002070470146C86CB4
:1008300080B270470246002013680B400BB10120C4
:1008400000E000207047014600208A6802F008029C
:100850000AB1012000E000207047000030B50246D8
:100860000020002350680F4C20400D790C6844EAAA
:1008700005242043506090680B4C2040D1E902547D
:100880002C434D7944EA450420439060D06A20F41B
:1008900070000C7C641EE4B2234340EA0350D06233
:1008A00030BD0000FFFEF0FFFDF7F1FFF0B504469C
:1008B0000D4600200021092D11DDE068A5F10A0692
:1008C00006EB4607072606FA07F18843A5F10A0654
:1008D00006EB460603FA06F10843E0600CE02069E7
:1008E00005EB4507072606FA07F1884305EB4506A1
:1008F00003FA06F108432061072A0FDA606B561EDF
:1009000006EB86071F2606FA07F18843561E06EBFC
:10091000860605FA06F10843606322E00D2A0FDA25
:10092000206BD61F06EB86071F2606FA07F18843C1
:10093000D61F06EB860605FA06F10843206310E091
:10094000E06AA2F10D0606EB86071F2606FA07F1FC
:100950008843A2F10D0606EB860605FA06F1084368
:10096000E062F0BD816841F008018160704721B10B
:10097000826842F4A002826003E0826822F4A0024E
:1009800082607047816841F004018160704700BF58
:10099000FEE700000748808841F29411884204DB9A
:1009A00004488088B0F5E15F03DD4FF4E150014970
:1009B0008880704764000020704700E0401E0028D7
:1009C000FCD1704710B5044600200E4908716FF441
:1009D0000050204498B9486A01F0C1FC0A490860F7
:1009E0000849098D88B201F0B1FC00B2064988803F
:1009F00002F0A6FB02F056FC0349886000E000BF4D
:100A000000BF10BD640200204C00002010B5344827
:100A1000B0F90400002814DA3149B1F904000028C3
:100A200001DB014600E041422E4AD2882D4B9B88D3
:100A300001FB12312B4A11801046808811464880F4
:100A400013E02749B1F90400002801DB014600E06A
:100A50004142244AD288234B9B8801FB1231214A10
:100A6000518010468088114608801D4800689628ED
:100A700005D94FF400611C4800F017FB04E04FF467
:100A80000061194800F00FFB4FF40051164800F0C8
:100A90000AFB4FF48041144800F007FB4FF48051EB
:100AA000124800F000FB4FF40051104800F0FDFA2E
:100AB00001210E4800F0F9FA02210C4800F0F3FA87
:100AC0000221094800F0F1FA0421074800F0EBFA8E
:100AD000044C638862882188208801F099F910BD50
:100AE0004C0000205800002000100140000C014084
:100AF0000549096821F01001034A1160114609688F
:100B000001431160704700000020024001460020B0
:100B1000034A106800F03800084310607047000076
:100B20000020024038B520211B4800F0BEFA012009
:100B3000FFF743FF0121082000F032FF2020ADF82D
:100B4000000004208DF8030001208DF802006946A2
:100B5000114800F0CBF90025002418E06006040ECF
:100B600020210D4800F096FA08B144F0010410214C
:100B7000094800F09AFA0120FFF71FFF10210648EC
:100B800000F091FA0120FFF718FF681CC5B2082D8C
:100B9000E4DB204638BD0000000C014070B505467E
:100BA000802420E005EA040038B120210F4800F03D
:100BB0007CFA0120FFF701FF06E020210B4800F03E
:100BC00072FA0120FFF7F9FE1021084800F06DFAD3
:100BD0000120FFF7F2FE1021044800F064FA012022
:100BE000FFF7EBFE6410002CDCD170BD000C01405F
:100BF0002DE9F04107460D4614469846002023494A
:100C000008702BE0214801780078401C1F4A1070C2
:100C1000142901DDBDE8F08100F0C6FB3846FFF77E
:100C2000BDFF00F04BFB00B918E02812FFF7B6FF3C
:100C300000F044FB00B911E0E8B2FFF7AFFF00F0AD
:100C40003DFB00B90AE000F0AFFB791CC8B2FFF72A
:100C5000A5FF00F033FB00B900E000E0D2E700BFE1
:100C600046460CE0FFF75EFF3070012C02D100F029
:100C700069FB01E000F0F0FA601E84B2761C002CE3
:100C8000F0D100F0D3FB00BFC4E70000400000201B
:100C90002DE9F04107460C4615461E4600201C492A
:100CA000087021E01A4801780078401C184A10703A
:100CB000142901DDBDE8F08100F076FB3846FFF72E
:100CC0006DFF00F0FBFA00B90EE02012FFF766FF9F
:100CD00000F0F4FA00B907E0E0B2FFF75FFF00F0C0
:100CE000EDFA00B900E000E0DCE700BF0AE0307890
:100CF000FFF754FF00F0E2FA00B903E0761C681E2B
:100D000085B200BF002DF2D100F090FB00BFD1E70B
:100D10004000002010B50346002001E01A54401C9A
:100D20008842FBD310BD000008B501217D2000F0F2
:100D300037FE0121084600F033FE0121654800F02E
:100D400061F94FF6FF70ADF8000000208DF8030048
:100D50006946614800F0CAF86946604800F0C6F884
:100D600069465F4800F0C2F869465E4800F0BEF888
:100D700069465D4800F0BAF84FF48060ADF80000B5
:100D800010208DF8030003208DF8020069465348B7
:100D900000F0ACF84FF40060ADF8000010208DF8C2
:100DA000030003208DF8020069464C4800F09EF8CD
:100DB0004FF40050ADF8000010208DF80300032020
:100DC0008DF802006946464800F090F84FF48040E4
:100DD000ADF8000010208DF8030003208DF802000C
:100DE00069463F4800F082F84FF48050ADF80000AB
:100DF00010208DF8030003208DF802006946374863
:100E000000F074F84FF40050ADF8000010208DF899
:100E1000030003208DF802006946304800F066F8B0
:100E20000120ADF8000010208DF8030003208DF89C
:100E300002006946294800F059F80220ADF8000088
:100E400010208DF8030003208DF802006946234826
:100E500000F04CF80220ADF8000010208DF80300DF
:100E600003208DF8020069461D4800F03FF8042079
:100E7000ADF8000010208DF8030003208DF802006B
:100E80006946174800F032F84FF40060ADF80000F2
:100E900010208DF8030003208DF8020069461048E9
:100EA00000F024F84FF48070ADF8000048208DF871
:100EB00003006946094800F019F84FF40070ADF8D6
:100EC000000048208DF803006946044800F00EF841
:100ED000002008BD0002300000080140000C014065
:100EE0000010014000140140001801402DE9F041BC
:100EF000024600250026002000230024002791F848
:100F000003C00CF00F0591F803C00CF0100CBCF1FD
:100F1000000F03D091F802C04CEA050591F800C01B
:100F2000BCF1000F31D0146800202BE04FF0010C11
:100F30000CFA00F3B1F800C00CEA03069E4220D17F
:100F400083004FF00F0C0CFA03F7BC4305FA03FCC7
:100F50004CEA040491F803C0BCF1280F06D14FF00D
:100F6000010C0CFA00FCC2F814C00AE091F803C0AE
:100F7000BCF1480F05D14FF0010C0CFA00FCC2F88F
:100F800010C0401C0828D1D31460B1F800C0BCF1D7
:100F9000FF0F34DD546800202EE000F1080C4FF004
:100FA000010808FA0CF3B1F800C00CEA03069E42EF
:100FB00021D183004FF00F0C0CFA03F7BC4305FA64
:100FC00003FC4CEA040491F803C0BCF1280F05D1DE
:100FD00000F1080C08FA0CF8C2F8148091F803C06C
:100FE000BCF1480F07D100F1080C4FF0010808FAD6
:100FF0000CF8C2F81080401C0828CED35460BDE81D
:10100000F0810000F0B50A460023002400210025ED
:1010100000F00046B6F1004F02D11D4EF16901E02B
:101020001B4E7168C0F3034583B200F44016B6F559
:10103000401F08D121F07061154E766826F0706669
:10104000134F7E6012E000F48016B6F5801F06D1C3
:10105000032606FA05F4A14341F0706106E0460D4F
:10106000360103FA06F6B14341F0706122B1460D34
:10107000360103FA06F6314300F00046B6F1004FA0
:1010800002D1034EF16101E0014E7160F0BD00003C
:10109000000001400246002093680B400BB1012084
:1010A00000E0002070474161704701617047000017
:1010B0002DE9F0470A21052000F032F8804640462D
:1010C000FFF7D8F88146FFF7DAF806464FF06632A8
:1010D000044BFFF75DF80446FFF7E4F80249886027
:1010E000BDE8F0876626823F5800002010B5044610
:1010F0000723012221460948FFF7D8FB01210748B1
:10110000FFF735FC00BF02210448FFF793FB0028DE
:10111000F9D00248FFF78AFB10BD0000002401400F
:101120002DE9F04107460C460025002605E038462B
:10113000FFF7DCFF0544701CC6B2A642F7DBB5FB27
:10114000F4F080B2BDE8F08110B500F019F800F0BD
:101150008DFA022305A20121322000F017FB0223A1
:1011600003A203210F2000F011FB10BD414C5800D9
:10117000466F6C6C6F77696E6743617200000000A8
:1011800008B54FF44040ADF8000014208DF803007E
:1011900003208DF8020069460648FFF7A7FE4FF4CA
:1011A00040410448FFF781FF00F082FAFF2000F081
:1011B00062FA08BD000C014000BFFEE710B54FF415
:1011C00080410C48FFF771FF4FF400410948FFF7D9
:1011D0006CFF00F055F94FF480410648FFF763FFBC
:1011E00000F04EF94FF400410248FFF75CFF00F0B9
:1011F00047F910BD000C014010B54FF4804108487C
:10120000FFF751FF4FF400410548FFF74EFF00F094
:1012100037F94FF480410248FFF747FF10BD000047
:10122000000C014010B54FF480410A48FFF73DFF24
:1012300000F026F94FF400410648FFF736FF00F0B2
:101240001FF94FF400410348FFF72DFF00F018F994
:1012500010BD0000000C014008B510211648FFF732
:1012600022FF0120FFF7A9FB0121082000F098FBD5
:101270002020ADF8000010208DF8030003208DF829
:10128000020069460C48FFF731FE20210A48FFF7AB
:101290000AFF0120FFF791FB10210748FFF705FF28
:1012A0000120FFF78AFB10210348FFF7FCFE012015
:1012B000FFF783FB08BD0000000C014038B520217A
:1012C0001F48FFF7F2FE0120FFF777FB01210820FE
:1012D00000F066FB2020ADF8000004208DF803002C
:1012E00001208DF8020069461548FFF7FFFD102127
:1012F0001348FFF7DAFE0120FFF75FFB20211048BB
:10130000FFF7C8FE08B1002400E0012410210C48BA
:10131000FFF7C9FE0120FFF750FB0121082000F074
:101320003FFB2020ADF8000010208DF803000320C3
:101330008DF8020069460248FFF7D8FD204638BD07
:10134000000C014008B510211648FFF7ACFE012043
:10135000FFF733FB0121082000F022FB2020ADF82D
:10136000000010208DF8030003208DF8020069466C
:101370000C48FFF7BBFD20210A48FFF796FE01202D
:10138000FFF71BFB10210748FFF78FFE0120FFF737
:1013900014FB10210348FFF786FE0120FFF70DFB29
:1013A00008BD0000000C014008B50121082000F034
:1013B000F7FA1020ADF800008DF8030003208DF837
:1013C000020069461848FFF791FD0121082000F04E
:1013D000E7FA2020ADF8000010208DF8030003206C
:1013E0008DF8020069461048FFF780FD20210E4865
:1013F000FFF75BFE0120FFF7E0FA10210A48FFF734
:1014000054FE0120FFF7D9FA20210748FFF74BFED1
:101410000120FFF7D2FA10210348FFF744FE012014
:10142000FFF7CBFA08BD0000000C014008B5012110
:10143000082000F0B5FA2020ADF8000010208DF84B
:10144000030003208DF8020069460C48FFF74EFDAB
:1014500020210A48FFF727FE0120FFF7AEFA1021EE
:101460000648FFF722FE0120FFF7A7FA20210348D4
:10147000FFF71BFE0120FFF7A0FA08BD000C01409A
:10148000032000BF011EA0F10102D0B2FAD17047C3
:1014900010B545F2555000F029F8062000F01AF872
:1014A0004FF49C7000F01CF800F00CF800F002F80B
:1014B00010BD00004CF6CC400149086070470000A8
:1014C000003000404AF6AA20014908607047000039
:1014D0000030004001494860704700000030004083
:1014E00001498860704700000030004001490860F1
:1014F000704700000030004010B501F0D3FE0D49E8
:101500000968401A42F21071884207D901F0CAFEF8
:10151000084908604FF4E13000F02EFF01F0C2FEF0
:1015200005498968401AC82802D900200249086084
:1015300010BD0000280000204C00002010B51F48FE
:101540000079D0B100201D4908711D48808800F540
:101550007A701B49888008468088B0F5E15F02DD1B
:101560004FF4E150888016488088164988800B46E1
:1015700080220021A420FFF78BFB13480079D8B10B
:101580000020114908710E488088A0F57A700C4936
:1015900088800846808841F29411884202DA084621
:1015A0000749888006488088064988800B46802243
:1015B0000021A420FFF76CFB10BD00002C000020D0
:1015C00058000020640000203400002000BFFEE727
:1015D0007047000070B5002100230F22C47804B3C7
:1015E000154C246804F4E064C4F5E064210AC1F1F8
:1015F0000403CA40447804FA03F184781440214378
:1016000009010E4C0678A155047804F01F05012449
:10161000AC4005786D11AD0005F1E025C5F800413D
:1016200009E0047804F01F050124AC40044D06785D
:10163000761145F8264070BD0CED00E000E400E0B6
:1016400080E100E010B5002807DA0A07140E054A09
:1016500000F00F031B1FD45403E00A07130E024AC5
:10166000135410BD18ED00E000E400E010B50020B8
:1016700000F001F810BD70B50646002415E004F135
:10168000B001C8B201F07CF8002001F079F8102018
:1016900001F076F8002504E0304601F087F8681C78
:1016A000C5B2802DF8DB601CC4B2082CE7DB70BD2E
:1016B00010B5642000F0DAFBAE2001F061F82020C4
:1016C00001F05EF8102001F05BF8B02001F058F84E
:1016D000C82001F055F8002001F052F8102001F068
:1016E0004FF8402001F04CF8812001F049F8FF202C
:1016F00001F046F8A12001F043F8A62001F040F8DF
:10170000A82001F03DF83F2001F03AF8A42001F0B4
:1017100037F8D32001F034F8002001F031F8D5205B
:1017200001F02EF8F02001F02BF8D92001F028F874
:10173000222001F025F8DA2001F022F8122001F031
:101740001FF8DB2001F01CF8202001F019F88D2093
:1017500001F016F8142001F013F8AF2001F010F892
:1017600010BD70B504460D4605F1B001C8B201F0D8
:1017700007F8102141EA141001F002F804F00F01FB
:1017800041F0010000F0FCFF70BD00002DE9F047C2
:101790000646894617469A464FF000080024002561
:1017A000BAF1010F03D0BAF1020F5ED125E020E0BB
:1017B000785D203800F0FF087E2E04DD002609F158
:1017C000010000F0FF0949463046FFF7CAFF002438
:1017D00009E008EB4801264A02EB4101085D00F0F0
:1017E000E5FF601CC4B2062CF3DBB01DC6B2681C5A
:1017F000C5B2785D0028DBD137E032E0785D203873
:1018000000F0FF08782E04DD002609F1010000F049
:10181000FF0949463046FFF7A4FF002407E004EB28
:101820000811144A505C00F0C1FF601CC4B2082CBF
:10183000F5DB09F10100C1B23046FFF792FF002449
:1018400008E004EB081108310A4A505C00F0AEFFD2
:10185000601CC4B2082CF4DB06F10800C6B2681C98
:10186000C5B2785D0028C9D100BF00BFBDE8F087D0
:10187000B0320008D834000810B54FF400610748B2
:10188000FFF711FC4FF480610548FFF70EFC4FF4A1
:1018900000610348FFF709FC10BD00000010014083
:1018A000000C014030B589B005460C4601210420EA
:1018B00000F076F80121082000F062F818208DF879
:1018C00023000F20ADF8200003208DF8220008A986
:1018D0002248FFF70BFBADF81850ADF8144000207C
:1018E000ADF81A00ADF8160005A91D4800F0DCFCA3
:1018F0006020ADF804000020ADF80A00ADF80C003F
:101900000120ADF8060001A9154800F069FB01A906
:10191000134800F0BBFB01A9114800F017FC01A916
:101920000F4800F06DFC08210D4800F0A5FB0821D0
:101930000B4800F0FDFB0821094800F057FC082186
:10194000074800F09BFC0121054800F031FB012114
:10195000034800F039FB09B030BD00000008014029
:10196000000C00407047000001460020034A506808
:1019700020F44040084350607047000000100240CF
:1019800029B1064AD2690243044BDA6104E0034AF2
:10199000D2698243014BDA617047000000100240B7
:1019A00029B1064A92690243044B9A6104E0034A52
:1019B00092698243014B9A61704700000010024017
:1019C00029B1064AD2680243044BDA6004E0034AB4
:1019D000D2688243014BDA60704700000010024079
:1019E00010B586B000F036F84FF4803000F0F6F80D
:1019F00000F052F9044634B31020FFF779F80220C2
:101A0000FFF784F8002000F0DDF8002000F018F95E
:101A10004FF4806000F008F94FF4E0114FF44030CB
:101A200000F020F9012000F017F900BF392000F084
:101A3000A3F80028FAD0022000F022F900BF00F03D
:101A4000B9F80828FBD101A800F02AF8002006B058
:101A500010BD00000F48006840F001000D4908600B
:101A6000084640680C4908400A4948600846006832
:101A70000A490840074908600846006820F48020A9
:101A800008600846406820F4FE0048604FF41F00DC
:101A900088607047001002400000FFF8FFFFF6FE6C
:101AA00030B500210022002400232D4D6D6805F083
:101AB0000C0121B1042905D0082923D105E0294DC5
:101AC000056022E0284D05601FE0254D6D6805F496
:101AD0007012234D6D6805F48034022505EB9242A7
:101AE0001CB9224D554305600BE01D4D6D6805F492
:101AF00000351DB11B4D5543056002E01A4D55439D
:101B0000056002E0174D056000BF00BF144D6D6811
:101B100005F0F0010909164D6B5C0568DD40456074
:101B20000F4D6D6805F4E061090A114D6B5C456865
:101B3000DD4085600A4D6D6805F46051C90A0C4DA1
:101B40006B5C4568DD40C560054D6D6805F440413E
:101B5000890B084D6B5CC568B5FBF3F5056130BDBD
:101B60000010024000127A000024F40000093D0039
:101B7000140000202400002010B50146002200239C
:101B800000204A11012A02D1094C236806E0022AEA
:101B900002D1074C236A01E0054C636A01F01F0281
:101BA000012494401C400CB1012000E0002010BD35
:101BB000001002400248406800F00C00704700002E
:101BC0000010024001460020034A506820F0F00057
:101BD0000843506070470000001002401149096836
:101BE00021F480310F4A11601146096821F48021E7
:101BF0001160B0F5803F03D0B0F5802F0ED106E024
:101C00000849096841F48031064A116007E0054936
:101C1000096841F4A021034A116000E000BF00BF41
:101C2000704700000010024001460020034A50683F
:101C300020F4E0600843506070470000001002404C
:101C400001460020034A506820F4605040EAC10079
:101C5000506070470010024001490866704700005C
:101C60000000424202460020044B586820F47C10D9
:101C700042EA01031843014B5860704700100240CC
:101C800001460020034A506820F0030008435060DA
:101C9000704700000010024038B50020009000247A
:101CA000002500BF3120FFF767FF05460098401C64
:101CB00000900098B0F5A06F01D0002DF2D0312037
:101CC000FFF75AFF08B1012400E00024204638BD88
:101CD0007047000070B5044600251FE004F0800046
:101CE00028B14FF480410F48FFF7DFF904E04FF4CB
:101CF00080410C48FFF7D7F9FFF7C2FB4FF40041D2
:101D00000848FFF7D2F9FFF7BBFB4FF40041054845
:101D1000FFF7C9F96006040E681CC5B2082DDDDBAB
:101D200070BD0000000C014010B500F001F810BDBE
:101D30000CB50020019000903348006840F48030DA
:101D40003149086000BF3048006800F4003000905E
:101D50000198401C0190009818B90198B0F5A06F47
:101D6000F1D12948006800F4003010B10120009042
:101D700001E0002000900098012843D1234800682A
:101D800040F01000214908600846006820F0030078
:101D900008600846006840F0020008601A48406881
:101DA000194948600846406848600846406840F461
:101DB000806048600846406820F47C10486008460F
:101DC000406840F4E81048600846006840F08070C1
:101DD000086000BF0C48006800F000700028F9D0CF
:101DE0000948406820F003000749486008464068F9
:101DF00040F00200486000BF0348406800F00C005B
:101E00000828F9D10CBD000000100240002002405B
:101E10002DE9F04107460C4615461E46384601F0AE
:101E200009FA1FFA80F841460F4800F034FA2046BC
:101E300001F000FA1FFA80F841460B4800F02DFA35
:101E4000284601F0F7F91FFA80F84146064800F0ED
:101E500026FA304601F0EEF91FFA80F841460248B2
:101E600000F01FFABDE8F081000C004000B501460B
:101E700001F018FA024600BF01F014FA801A8842F5
:101E8000FAD300BD10B5134800684FF47A71B0FB67
:101E9000F1F4B4F1807F01D3012011E024F07F4000
:101EA000401E4FF0E02148610F214FF0FF30FFF757
:101EB000C9FB00204FF0E021886107200861002065
:101EC00008B100BFFEE70521881FFFF7BBFB00201C
:101ED00010BD00000000002010B519480068401C2B
:101EE0001749086000F03CFC4FF480711548FFF77B
:101EF000D1F818B10020144908600AE012480068BF
:101F0000401C1149086008460068322801D10120B0
:101F100008714FF400710B48FFF7BCF818B10020AE
:101F20000A4908600AE009480068401C074908603F
:101F300008460068322801D10120087110BD000058
:101F400044000020000C01402C0000203400002040
:101F500010B51348006840F00100114908600846B8
:101F60004068104908400E494860084600680E491C
:101F700008400B4908600846006820F4802008608B
:101F80000846406820F4FE0048604FF41F00886057
:101F9000FFF7CAFE4FF000600449086010BD000062
:101FA000001002400000FFF8FFFFF6FE08ED00E021
:101FB00021B1028842F08002028004E002884FF6DC
:101FC0007F731A400280704721B1028842F00102FB
:101FD000028004E002884FF6FE731A4002807047C8
:101FE00070B5002400220023058C4FF6FE763540A4
:101FF0000584028C8388048B4FF68F752C40B51EA8
:102000002C400D882C43751E2A400D892A434D888B
:102010002A43144DA8420BD0134DA84208D0134DAB
:10202000A84205D0124DA84202D0124DA84213D1A9
:102030004FF6F7752A404D892A434FF6FB752A4023
:102040008D882A434FF6FF652B404FF6FF552B40F6
:102050008D892B43CD892B4383800483CD8885864E
:10206000028470BD002C014000340140004001405A
:1020700000440140004801400A460021018B4FF610
:10208000F7731940114301837047000070B50024B5
:1020900000220023058C4FF6EF7635400584028C34
:1020A0008388048B48F6FF752C404FF6FF452C4083
:1020B0000D884FF6FF7606EA05252C434FF6DF75AF
:1020C0002A400D8906EA05152A434D8806EA0515BA
:1020D0002A43154DA84202D0144DA8421DD14FF6F7
:1020E0007F752A404D894FF6FF7606EA05152A438B
:1020F0004FF6BF752A408D8806EA05152A434FF62C
:10210000FF352B404FF2FF752B408D8906EA850580
:102110002B43CD8906EA85052B4383800483CD8834
:102120000587028470BD0000002C0140003401408E
:102130000A460021018B4FF2FF7319404FF6FF73DF
:1021400003EA0223194301837047000070B500249D
:1021500000220023058C4FF6FF6635400584028C73
:102160008388848B4FF68F752C404FF6FC752C407E
:102170000D882C434FF6FF552A400D894FF6FF7608
:1021800006EA05252A434D8806EA05252A43154D0A
:10219000A84202D0144DA8421DD14FF2FF752A402B
:1021A0004D894FF6FF7606EA05252A434FF6FF359F
:1021B0002A408D8806EA05252A434EF6FF752B40F6
:1021C0004DF6FF752B408D8906EA05152B43CD8909
:1021D00006EA05152B4383808483CD888587028496
:1021E00070BD0000002C0140003401400A4600216F
:1021F000818B4FF6F77319401143818370470000BC
:1022000070B5002200230024058C4EF6FF76354081
:102210000584038C8488828B48F6FF752A404FF62C
:10222000FF452A400D884FF6FF7606EA05252A432A
:102230004DF6FF752B400D8906EA05352B434D8879
:1022400006EA05352B430B4DA84202D00A4DA842A1
:1022500008D14BF6FF752C408D894FF6FF7606EAC4
:1022600085152C4384808283CD88A0F84050038458
:1022700070BD0000002C0140003401400A460021DE
:10228000818B4FF2FF7319404FF6FF7303EA02236D
:102290001943818370478186704701877047818722
:1022A0007047A0F840107047002202881D4B9842EA
:1022B0000ED01D4B98420BD0B0F1804F08D01B4B75
:1022C000984205D01A4B984202D01A4B984204D13A
:1022D0004FF68F731A404B881A43174B984207D01A
:1022E000164B984204D04FF6FF431A40CB881A434E
:1022F00002808B8883850B8803850A4B98420BD01C
:10230000094B984208D00E4B984205D00D4B98428D
:1023100002D00D4B984201D10B7A038601238382B0
:1023200070470000002C01400034014000040040D0
:1023300000080040000C0040001000400014004065
:1023400000400140004401400048014001464FF672
:10235000FF7000EA01230A12981880B27047014604
:102360000A0602EB116201F47F4302EB032201F43F
:102370007F0302EB1320704710B586B00446029429
:102380000020ADF80C00ADF80E00ADF81000ADF86F
:1023900014000C20ADF8120001210520FFF700FB0E
:1023A00000210420FEF72EFE01218803FFF7F8FA32
:1023B00018208DF807004FF40070ADF804000320DA
:1023C0008DF8060001A92048FEF790FD04208DF845
:1023D00007000002ADF8040001A91B48FEF786FDC6
:1023E00002A91A4800F01EF9012240F225511748AF
:1023F00000F0F2F80121154800F0AFF825208DF823
:10240000000008208DF8010000208DF80200012056
:102410008DF803006846FFF7DDF8012280210B48A4
:1024200000F0A7F80E208DF8000009208DF80100BB
:1024300000208DF8020001208DF803006846FFF7A8
:10244000C9F806B010BD0000000801400038014086
:1024500010B540F22551374800F094F8002868D0B4
:102460003448001D0088C4B23348007818B132489F
:102470000078022858D1304801890089401C2E4A32
:10248000108102F11000445432201146C86002202D
:1024900008700846407850B308468078401C887021
:1024A00008468078052801D10846C48022488078F3
:1024B00006280ED12048807904EB00201E49C880F0
:1024C0000846C08842F20101884202D121201A49FF
:1024D000C870194880781849C978884207D1002007
:1024E000154948708870C870C88003200870FF2C98
:1024F00005D111480079401C0F49087102E0002005
:102500000D4908710C480079042806DB00200A49AF
:102510000871012048700420088107480089642858
:1025200002DB03200449087040F22551014800F005
:1025300005F810BD003801406402002010B50022EB
:10254000002340F66A14A14200D100BF0A12012400
:102550009440A3B2DC43048010BD21B1828942F4CF
:102560000052828104E082894DF6FF731A40828115
:1025700070471AB1838A0B43838202E0838A8B43BC
:102580008382704770B50246002400230025002096
:1025900040F66A16B14200D100BFC1F3421501F006
:1025A0001F03012606FA03F3012D02D19689334059
:1025B00006E0022D02D1168A334001E0968A3340AC
:1025C0000C12012606FA04F41688344013B10CB13B
:1025D000012000E0002070BDF0B503460024002675
:1025E0000025002040F66A17B94200D100BF184606
:1025F000C1F3421401F01F06012707FA06F5012C6A
:1026000001D10C3004E0022C01D1103000E0143074
:102610001AB107682F43076002E00768AF430760FD
:10262000F0BD00002DE9F04786B005460E460024B7
:10263000A24600BFA1460027B08900B100BF2F46C7
:102640002C8A4CF6FF700440F08804432C82AC893D
:102650004EF6F3100440B08831890843718908436D
:102660000443AC81AC8A4FF6FF400440B089044378
:10267000AC8201A8FFF714FA1F48874202D1DDF8A7
:1026800010A001E0DDF80CA0A88900F4004040B1E2
:102690000AEBCA0000EB0A1031684900B0FBF1F800
:1026A00007E00AEBCA0000EB0A1031688900B0FBB2
:1026B000F1F86420B8FBF0F004012009642101FB6B
:1026C0001089A88900F4004040B1322000EBC90015
:1026D000B0FBF1F000F00700044308E0322000EB0B
:1026E00009106421B0FBF1F000F00F0004432C81CD
:1026F00006B0BDE8F08700000038014000BFFEE7EB
:1027000010B5FEF783F9FEF719FFFEF7D1FC00F0D4
:1027100003F8FEF7F1FE10BD10B508480078032855
:1027200000D010BD0549088BFFF710FE0446FEF7E8
:1027300049F900F005F800BFF3E70000640200204B
:1027400010B5002005490870C86008810022642186
:1027500002481030FEF7DEFA10BD000064020020CF
:102760000648C06848B10548C068401E0349C860B3
:102770000846C06808B9032008707047640200204A
:1027800010B50446FEF71AFD7820FFF7A3FAFEF70E
:1027900049FD0020FFF79EFAFEF744FD2046FFF7B3
:1027A00099FAFEF73FFDFEF727FD10BD10B5044670
:1027B000FEF704FD7820FFF78DFAFEF733FD402089
:1027C000FFF788FAFEF72EFD2046FFF783FAFEF7A3
:1027D00029FDFEF711FD10BD0FB4084B10B504A97B
:1027E00002AA039800F0DEF8044602A9002000F0D7
:1027F0005CFC204610BC5DF814FB0000AB30000808
:1028000002E008C8121F08C1002AFAD170477047B9
:10281000002001E001C1121F002AFBD17047000017
:102820002DE9FF5F82B00021DDE90430020DDDF803
:1028300040B0034318D044F61050A2F2FF32424396
:102840001514119801281FD0A5EB0B00401C5FEA5E
:10285000000A4FF000064E4FDFF83891B046504660
:1028600015D5CAF1000413E0119801244AA30128E8
:1028700001D16FEA0B010298119AC0E90031C0E959
:10288000024206B0BDE8F09FCBF10000DFE704464E
:102890000021404A491842EB0450CDE9001012E0F3
:1028A000E00707D032463B4640464946FDF770FCFC
:1028B0008046894632463B4610461946FDF768FC7D
:1028C00006460F466410002CEAD1DDE90401DDE97B
:1028D0000023BAF1000F06DAFDF75AFC42464B46D8
:1028E000FDF756FC05E0FDF77BFE42464B46FDF743
:1028F00077FE04460E460022284BFDF7F9FE03D86A
:102900004FF0FF30014607E00022254B20463146BC
:10291000FDF7BFFDFDF7D3FE102409E0002C0ADB14
:102920000A220023FDF7F0FC039B30321A55641E87
:1029300050EA0102F2D1641C039AC4F11103144459
:10294000119A012A03D0012208430DD10AE008435D
:1029500004D000204FF0110B119072E7A3EB0B0590
:102960006D1E0DE05B4504DD4FF0000205F1010531
:1029700004E003DA4FF00002A5F10105002AECD0D3
:1029800002981199C0E90231C0E9004579E70000D9
:10299000000014400000F03F300000000000F04351
:1029A0000000E03F2DE9FF4F95B09A468846064665
:1029B0000025EEE1252877D100242746F94A012198
:1029C000039400E0044316F8013F203B01FA03F0B2
:1029D0001042F7D130782A2811D06FF02F033078C9
:1029E000A0F13002092A16D8039A44F0020402EB3F
:1029F000820203EB42021044761C0390EFE758F882
:102A0000042B0392002A03DA504244F4005403904A
:102A100044F00204761C30782E2816D116F8010FE7
:102A200044F004042A280DD06FF02F023078A0F172
:102A30003003092B09D807EB870302EB4303C718C0
:102A4000761CF3E758F8047B761C30786C280FD09E
:102A500006DC4C2817D068280DD06A2814D104E071
:102A6000742810D07A280FD10DE044F400140AE045
:102A700044F4801401E044F440147278824202D19C
:102A800004F58014761C761C307866280BD013DC95
:102A9000582877D009DC002875D04528F6D046287C
:102AA000F4D047281AD193E118E0632835D0642880
:102AB00079D0652812D18BE1702873D008DC6728A3
:102AC000F1D069286FD06E280DD06F2806D1ACE008
:102AD00073282CD0752874D0782853D05246179973
:102AE00090476D1C54E1C4F30250022809D003281A
:102AF0000DD0D8F8001004280DD00D6008F104089E
:102B000046E1D8F80010EA17C1E90052F6E7D8F814
:102B100000100D80F2E70D70F0E718F8041B8DF837
:102B2000001000208DF80100EB46012003E058F86A
:102B300004BB4FF0FF3061074FF0000102D40DE0FD
:102B400009F101018946B9420FDA8145F8DB1BF82A
:102B500009100029F4D108E009F1010189468142F8
:102B6000FADB1BF809100029F6D103985346A0EBB5
:102B7000090721463846179A00F080FA284400EBEE
:102B8000090507E044E008E10DE01BF8010B52469F
:102B900017999047B9F10109F7D2534621463846B3
:102BA000179AF2E039E00A21C4F302524FF0000B09
:102BB0000091022A06D058F8040BC117032A09D045
:102BC0000AE023E008F1070020F00702F2E8020122
:102BD000904605E000B2C117042A01D140B2C117E6
:102BE000002906DA0A460021404261EB02012D224B
:102BF00002E0220504D52B228DF80420012203E0F7
:102C0000E20701D02022F7E7914657E00A2100E0D1
:102C100010214FF0000B00910BE010214FF0000B42
:102C200044F004040827009103E008204FF0000B53
:102C30000090C4F30252022A05D058F8040B002178
:102C4000032A08D008E008F1070020F00702F2E8A4
:102C50000201904603E080B2042A00D1C0B24FF0D6
:102C6000000922072AD53278702A07D0DDF800C083
:102C70008CF0100C5CEA0B0C05D00EE040228DF8B5
:102C80000420012208E050EA010306D030238DF829
:102C900004308DF8052002229146009B83F0080342
:102CA00053EA0B030AD150EA010201D1620705D5AC
:102CB00030228DF804204FF001097F1E3278582A07
:102CC00004D039A20C920CAA02920BE03BA2F9E7C5
:102CD0005B46009AFDF718FB0C9B9B5C029A521E08
:102CE0000292137050EA0102F2D1029804A9081A64
:102CF00000F1200B600702D524F4803400E00127A6
:102D00005F4502DDA7EB0B0000E0002000EB0B01AC
:102D1000009003984944401A0390E00306D45346B8
:102D20002146179A039800F0A9F90544002706E008
:102D300001A85246C05D179990476D1C7F1C4F45F6
:102D4000F6DBE0030CD553462146179A039800F0B2
:102D500095F9054404E030205246179990476D1CC0
:102D60000099481E00900029F5DC08E002980299BD
:102D700052460078491C0291179990476D1CBBF18F
:102D80000001ABF1010BF1DC5BE100F065F90544FA
:102D9000761C307800287FF40DAE19B02846BDE8C7
:102DA000F08F0000092801003031323334353637D6
:102DB0003839616263646566000000003031323387
:102DC0003435363738394142434445460000000027
:102DD000600700D4062708F1070020F00700F0E89C
:102DE0000223804603F0004C5FEA0C0001D097A05C
:102DF00009E0200501D596A005E0E00701D095A0E7
:102E000001E0AFF24C001390307823F000436528C6
:102E10000CD006DC452809D046281DD047287FD194
:102E20003BE0662818D067287AD136E00021112FC0
:102E300001DB112000E0781CCDE9000104A90CA8F9
:102E4000FFF7EEFCDDE90D010C9A4FF0000B07F1E6
:102E50000109109200914EE04FF000400097CDE93B
:102E6000011004A90CA8FFF7DBFCDDE90D020C9BA7
:102E70000F994FF0000B91461093009211B9791CF5
:102E800000EB0109B7EB090003D4C0F1FF3B07F1E8
:102E90000109A9EB0700019042E0012F00DA0127A8
:102EA0000021112F01DD112000E03846CDE900019D
:102EB00004A90CA8FFF7B4FCDDE90D010C9A009100
:102EC0004FF0000BB946109221070FD4009A4A45E3
:102ED00003DA914601E0A9F10109B9F1010F05DD1D
:102EE000109AA9F10101515C3029F4D0B84202DAFC
:102EF00010F1040F03DA0121CDE9011010E00028E0
:102F000003DC8344A9EB000102E0411C494500DDDC
:102F10008946A0EB0B00401C01904FF0004002904E
:102F2000200705D40198484502DB4FF0FF3001909F
:102F300000208DF84B0002980DF14B07B0F1004FC7
:102F400025D002200C902B200D90029800280CDA3E
:102F5000404202902D200D9007E00A210298FDF7D3
:102F6000BDF93031029007F8011D0C99481E0C90F4
:102F70000029F2DC02980028EFD1791E0D98087024
:102F8000307800F0200040F0450007F8020D11A84D
:102F9000C01BC01D02901398007800B1012000EB07
:102FA0000901019801EBE071029801440398401A6D
:102FB000401E0390E00306D453462146179A039817
:102FC00000F05CF805441398007818B15246179940
:102FD00090476D1CE00323D553462146179A03986A
:102FE00000F04CF805441BE0BBF1000F07DB009834
:102FF000584504DD1098179910F80B0001E0179957
:1030000030205246904701980BF1010B401E05F10C
:103010000105019004D12E205246179990476D1C4E
:10302000B9F10001A9F10109DEDC05E017F8010B97
:103030005246179990476D1C0299481E029000292C
:10304000F4DC53462146179A03989EE62D000000B3
:103050002B000000200000002DE9F041044600256F
:103060001E461746880404D405E039462020B047A0
:103070006D1C641EF9D52846BDE8F0812DE9F041AC
:10308000044600251E469046C80301D5302700E0BF
:103090002027880404D505E041463846B0476D1C1A
:1030A000641EF9D52846BDE8F0810A68531C0B6000
:1030B0001070704700B587B001214FF40170FEF722
:1030C0006FFC2020ADF8180000208DF81B0006A929
:1030D0001948FDF70BFF4FF40040FEF745FC174879
:1030E000FDF76CFB002001908DF808008DF80900B9
:1030F0004FF4602003900020049001208DF814000C
:1031000001A90E48FDF7AAFB01210C48FDF74BFB76
:103110000A48FDF727FC00BF0848FDF794FB00288C
:10312000FAD10648FDF72EFC00BF0448FDF774FBFA
:103130000028FAD107B000BD00080140002401407A
:1031400030B5B1B02648407920B9012024494871F2
:10315000FEF78CFA23480068401C224908600521CC
:1031600090FBF1F201FB1200002837D1402121A889
:10317000FDF703F81C48B0F904301CA1026821A82F
:10318000FFF72AFB022321AA00210846FEF7FEFAD8
:10319000402111A8FCF7F1FF1948828819A111A854
:1031A000FFF71AFB022311AA05210020FEF7EEFA11
:1031B000402101A8FCF7E1FF11498868FDF75FF89D
:1031C000044622460B4612A101A8FFF705FB022385
:1031D00001AA03210020FEF7D9FA00BF31B030BDAB
:1031E000640200203C0000204C00002020443A20D3
:1031F0002533642020413A2025336420000000005C
:10320000580000202056203A20256420202000006D
:1032100020566363203A2025322E31662076200026
:1032200000F028F800F00AF803E0FEF74BF9FFF78A
:1032300067FAFAE7002800DA4042704710B54FF409
:103240007A70FEF713FE094B80220021A420FDF7BF
:10325000CFFCFDF79FFB0548808805498880322018
:10326000C880FEF715F9002010BD000064000020A2
:103270005800002010B5FEF7B3FBFDF755FDFEF733
:1032800001FE4FF4E130FFF777F8FFF713FF00215D
:1032900041F61F40FEF706FBFDF756FFFEF7ECFA7E
:1032A000002010BD01480068704700004400002065
:1032B0000000000000000000002F000000000700D8
:1032C000070000147F147F1400242A7F2A12006252
:1032D00064081323003649552250000005030000FE
:1032E00000001C224100000041221C000014083E86
:1032F00008140008083E0808000000A0600000084C
:10330000080808080000606000000020100804029F
:10331000003E5149453E0000427F4000004261515D
:103320004946002141454B31001814127F100027F7
:1033300045454539003C4A494930000171090503BA
:1033400000364949493600064949291E00003636EB
:10335000000000005636000000081422410000144E
:10336000141414140000412214080002015109062B
:1033700000324959513E007C1211127C007F4949AC
:103380004936003E41414122007F4141221C007FDD
:1033900049494941007F09090901003E4149497AEB
:1033A000007F0808087F0000417F41000020404165
:1033B0003F01007F08142241007F40404040007FD1
:1033C000020C027F007F0408107F003E4141413E15
:1033D000007F09090906003E4151215E007F09195D
:1033E00029460046494949310001017F0101003F5A
:1033F0004040403F001F2040201F003F4038403FDA
:10340000006314081463000708700807006151493D
:10341000454300007F41410000552A552A550000D0
:1034200041417F000004020102040040404040404E
:10343000000001020400002054545478007F4844E6
:10344000443800384444442000384444487F00381D
:103450005454541800087E0901020018A4A4A47C46
:10346000007F080404780000447D40000040808410
:103470007D00007F102844000000417F4000007C58
:1034800004180478007C0804047800384444443864
:1034900000FC242424180018242418FC007C0804B0
:1034A000040800485454542000043F444020003C89
:1034B0004040207C001C2040201C003C4030403C10
:1034C000004428102844001CA0A0A07C00446454A0
:1034D0004C441414141414140000000000000000E4
:1034E0000000000000000000000000F800000000E4
:1034F000000000333000000000100C06100C060025
:10350000000000000000000040C07840C07840008B
:10351000043F04043F040400007088FC08300000ED
:10352000001820FF211E0000F008F000E018000045
:1035300000211C031E211E0000F0088870000000FE
:103540001E2123241927211010160E000000000050
:103550000000000000000000000000E0180402006D
:10356000000000071820400000020418E0000000DE
:103570000040201807000000404080F080404000DC
:103580000202010F01020200000000F00000000032
:103590000101011F01010100000000000000000006
:1035A00080B070000000000000000000000000007B
:1035B0000001010101010101000000000000000004
:1035C000003030000000000000000000806018049F
:1035D000006018060100000000E010080810E0007C
:1035E000000F102020100F00001010F80000000045
:1035F0000020203F2020000000700808088870008C
:10360000003028242221300000300888884830000B
:103610000018202020110E000000C02010F800002B
:1036200000070424243F240000F8088888080800C4
:103630000019212020110E0000E0108888180000D9
:10364000000F112020110E0000380808C8380800AB
:103650000000003F0000000000708808088870002B
:10366000001C222121221C0000E010080810E000AC
:103670000000312222110F00000000C0C000000035
:10368000000000303000000000000080000000005A
:103690000000806000000000000080402010080052
:1036A000000102040810200040404040404040001B
:1036B00004040404040404000008102040800000F6
:1036C0000020100804020100007048080808F000FB
:1036D0000000003036010000C030C828E810E000CB
:1036E0000718272423140B000000C038E000000056
:1036F000203C23020227382008F8888888700000C0
:10370000203F202020110E00C03008080808380093
:10371000071820202010080008F808080810E0000A
:10372000203F202020100F0008F88888E8081000AB
:10373000203F20202320180008F88888E80810007F
:10374000203F200003000000C030080808380000B7
:1037500007182020221E020008F808000008F808B8
:10376000203F210101213F20000808F8080800003F
:103770000020203F2020000000000808F808080072
:10378000C08080807F00000008F888C028180800EA
:10379000203F20012638200008F808000000000023
:1037A000203F20202020300008F8F800F8F808001A
:1037B000203F003F003F200008F830C00008F80814
:1037C000203F200007183F00E01008080810E00024
:1037D0000F10202020100F0008F808080808F0003B
:1037E000203F210101010000E01008080810E0005E
:1037F0000F18242438504F0008F8888888887000F3
:10380000203F2000030C3020007088080808380092
:103810000038202121221C00180808F80808180088
:103820000000203F2000000008F808000008F80809
:10383000001F202020201F000878880000C83808BA
:10384000000007380E010000F80800F80008F80032
:10385000033C0700073C03000818688080681808CC
:1038600020302C03032C30200838C800C83808004A
:103870000000203F2000000010080808C838080099
:103880002038262120201800000000FE020202003D
:103890000000007F40404000000C30C000000000ED
:1038A000000000010638C00000020202FE00000015
:1038B000004040407F0000000000040202020400BB
:1038C00000000000000000000000000000000000F8
:1038D00080808080808080800002020400000000E0
:1038E00000000000000000000000808080800000D8
:1038F0000019242222223F2008F8008080000000C6
:10390000003F112020110E00000000808080000088
:10391000000E112020201100000000808088F80097
:10392000000E112020103F200000808080800000C9
:10393000001F222222221300008080F0888888182D
:103940000020203F20200000000080808080800038
:10395000006B94949493600008F8008080800000CD
:10396000203F210000203F200080989800000000A8
:103970000020203F202000000000008098980000D8
:1039800000C08080807F000008F8000080808000F8
:10399000203F24022D302000000808F8000000001D
:1039A0000020203F202000008080808080808000D8
:1039B000203F20003F20003F80800080808000006A
:1039C000203F210000203F200000808080800000F8
:1039D000001F202020201F00808000808000000029
:1039E00080FFA12020110E00000000808080800058
:1039F000000E112020A0FF80808080008080800049
:103A000020203F2120000100000080808080800075
:103A10000033242424241900008080E080800000EA
:103A20000000001F20200000808000000080800037
:103A3000001F202020103F20808080000080808098
:103A400000010E3008060100808000800080808028
:103A50000F300C030C300F0000808000808080004D
:103A60000020312E0E312000808080000080808078
:103A700080818E7018060100008080808080800028
:103A80000021302C2221300000000000807C020246
:103A900000000000003F404000000000FF00000068
:103AA00000000000FF0000000002027C8000000017
:103AB0000040403F00000000000601010202040433
:103AC0000000000000000000E83A000800000020AC
:103AD0004C00000000280008343B00084C00002087
:103AE0008C0600001028000800A24A040000000014
:103AF000000000000102030406070809000000009E
:103B0000010203040102030406070809020406086F
:103B100000000000000000000000000000000000A5
:103B200000000000000000000000A40000000000F1
:043B30000000000091
:0400000508000131BD
:00000001FF
