:020000040800F2
:10000000604D0020054C0008E1010008E3010008F4
:10001000E5010008E7010008E90100080000000010
:10002000000000000000000000000000EB010008DC
:10003000ED01000800000000EF010008F1010008D8
:100040001F4C00081F4C00081F4C00081F4C0008E4
:100050001F4C00081F4C000889220008612200087C
:10006000ED220008AF2200081F4C00081F4C0008BA
:100070001F4C00081F4C00081F4C00081F4C0008B4
:100080001F4C00081F4C00081F4C00081F4C0008A4
:100090001F4C00081F4C00081F4C000813230008C9
:1000A0001F4C0008F50100081F4C00081F4C0008F9
:1000B0001F4C00081F4C00081F4C00081F4C000874
:1000C0001F4C00081F4C00081F4C00081F4C000864
:1000D0001F4C00081F4C0008DB0800081F4C0008DC
:1000E0001F4C00081F4C00081F4C00081F4C000844
:1000F0001F4C00081F4C00081F4C00081F4C000834
:100100001F4C00081F4C00081F4C00081F4C000823
:100110001F4C00081F4C00081F4C00081F4C000813
:100120001F4C00081F4C00081F4C00081F4C000803
:10013000DFF810D005F0DAF9004800477D2D0008FF
:10014000AFF30080604D0020214822490068B0FBD9
:10015000F1F0401EB0F1807F0BD24FF0E0214861FA
:100160001D4AF02082F8140D0020886107200861E4
:100170007047FEE7194908604FF0E020026942F03D
:100180000102026108680028FCD170474FF47A71BF
:100190004843124908604FF0E020026942F0010232
:1001A000026108680028FCD170470C48D0E90212AF
:1001B000491C42F10002C0E902120168002902D084
:1001C0000168491E0160704704488068704700005C
:1001D000C804002040420F000FE000E000000020B3
:1001E0007047FEE7FEE7FEE7FEE77047704770479F
:1001F000FFF7DBBF10B50A4C0121204604F05FFB7E
:1002000000280BD00121204604F065FB0121204687
:1002100004F052FBBDE8104000F08BB910BD0000A7
:10022000002C01400022C0F80C2500F20C50C0E95F
:1002300001217047D0F81425D0F80C15D0F810051E
:1002400000E0491C91FBF2F302FB13138342F8D147
:10025000704700F5A261D0F80C0506C9491C91FB56
:10026000F2F302FB1311814201D1012070470020FB
:100270007047D0F80C15D0F81005814201D101204B
:100280007047002070470FB410B50446FFF7E1FF38
:1002900018B1002010BC5DF814FBD4F810159DF8BF
:1002A0000C0001EBC11104F81100D4F810159DF8F1
:1002B0000D0001EBC11104EB41014870D4F81005A9
:1002C0009DF80D2000EBC01004EB40000DF10E0175
:1002D000801C04F08EFD04F5A26003C8401C90FB56
:1002E000F1F201FB1200C4F810050120D2E710B5AD
:1002F0000B460446FFF7BDFF08B1002010BDD4F83F
:100300000C054FF4817200EBC01004EB400118465D
:1003100004F06FFDD4F80C05D4F81415401C90FBC4
:10032000F1F201FB1200C4F80C05012010BD30B53C
:10033000002288B05FF00A03B0FBF3F403FB14045F
:10034000B0FBF3F030348C54521C0028F4D18854A4
:1003500010006B4604D40C5C151A401E5C55FAD58F
:10036000012004E01C5C0D18401C05F8014C904273
:10037000F8DD08B030BD2DE9F04117468846064645
:1003800000241DE0305D04F02AFDC5B2301940782C
:1003900004F025FDC0B2392D01D9373D00E0303DD4
:1003A000E9B2392801D9373800E03038C0B204EB5F
:1003B000D47240EA011008EB6201A41C087024B258
:1003C000BC42DFDBBDE8F081F8B515460E460746B6
:1003D00000240AE03A5D06A1684605F033F906EB11
:1003E0004400BDF800100180641CAC42F2DBF8BD93
:1003F000253032580000000008B50121102003F01C
:10040000A4FC3020ADF8000010208DF8030003207C
:100410008DF8020069463B4803F0FBF808BD70B553
:10042000384C2021204603F062F91021204603F0C9
:100430005EF94FF496752846FFF7A8FE2021204666
:1004400003F057F91021204603F053F92846FFF72F
:100450009DFE2021204603F04AF91021204603F09A
:1004600046F92846FFF792FE2021204603F041F985
:100470001021204603F03DF92846FFF787FE202192
:10048000204603F034F92046BDE87040102103F007
:100490002EB938B50121202003F057FC0420ADF817
:1004A000000010208DF803000320174C8DF8020087
:1004B0006946204603F0ADF80421204603F017F901
:1004C00038BD70B5104D04460421284603F011F9DB
:1004D000322044432046FFF759FE0421284603F00A
:1004E00006F92046BDE87040FFF750BE10B5FFF793
:1004F00083FFFFF794FFFFF7CCFFBDE810400A2011
:10050000DFE70000001001400014014070B5044610
:100510000D4645F2555003F0EFFA204603F0EFFA8E
:10052000284603F0EFFA03F0F0FABDE8704003F05C
:10053000F1BA03F0EABA08B54FF4A06002F024FC67
:1005400019208DF8000000208DF801008DF80200C0
:1005500001208DF80300684602F01BFC08BDFEB5C3
:100560000C4605460121C80203F0EFFB1A4E304647
:1005700003F03AFC0020ADF80450ADF80040ADF8AF
:100580000600ADF802008DF808006946304603F019
:10059000C3FC0121304604F08FF901221146304698
:1005A00003F078FF0021304603F05FFFFEBD10B579
:1005B00040F271210720FFF7A9FFFFF7BCFF41F6CA
:1005C0001F4140F2CF70FFF7CAFFBDE81040012184
:1005D000014803F04ABF0000002C014070B50C46F2
:1005E000C8B1C4B1894D0021284602F0BCFC2146A7
:1005F000284602F0CBFC0121284602F0B4FC4FF45F
:100600000055284602F0DFFC0028FAD0284602F008
:10061000D0FC204670BD002070BD0FB44FF4807137
:1006200010B503AB7A48029A05F020F881B27848F9
:10063000FFF7D4FF10BC5DF814FB70B50D460646FD
:1006400001218CB01446084603F076FB304602F0D8
:10065000F3FB10200095CDE9014000010021CDE918
:1006600003018020CDE905018001CDE90810079143
:100670000A916946304602F04CFC0122802165480F
:1006800004F0F1F901220221604802F077FC0CB07D
:1006900070BD10B55F4C002240F22661204604F088
:1006A000CAF9002240F22551204604F0C4F9012283
:1006B00040F22441204604F0BEF9211DBDE810405F
:1006C000534A5248B9E71FB5524C00900020ADF88C
:1006D0000400ADF80600ADF80800ADF80C000C20E1
:1006E000ADF80A006946204604F028F9012240F2DC
:1006F0002551204604F09FF90121204604F091F98C
:100700001FBD38B5012144F2040003F01EFB4FF475
:100710000070ADF8000003208DF8020018203E4C58
:100720008DF803006946204602F073FF2015ADF8EE
:10073000000004208DF803006946204602F069FF9E
:1007400038BD08B54FF4A06002F01EFB26208DF8DE
:10075000000001208DF8010002218DF802108DF8B3
:100760000300684602F015FB08BD1FB52B4C009036
:100770000020ADF80400ADF80600ADF80800ADF8B3
:100780000C000C20ADF80A006946204604F0D6F8AB
:10079000012240F22551204604F04DF90121204666
:1007A00004F03FF91FBD38B50121042003F0CDFA54
:1007B0000121480403F0D2FA0424ADF800400320DC
:1007C0008DF802001820144D8DF803006946284664
:1007D00002F01FFF0820ADF800008DF803406946C5
:1007E000284602F016FF38BD10B5FFF78AFF4FF418
:1007F000E1342046FFF767FFFFF74BFFFFF7D3FF1A
:100800002046FFF7B2FFBDE810409AE744000240DF
:10081000DC04002000380140000801400044004092
:1008200010B5E0215A4804F0FDFA59480521BDE809
:100830001040E030FFF7F6BC30B504460020034618
:1008400003E0CD18655D68405B1C9342F9DB30BD69
:1008500030B54F4C00252246D11C23789278B9B090
:1008600023B1012B0AD0022B34D117E02A2831D131
:10087000012323705054A078401C2AE002232370E7
:100880005054A178401D491CC0B2A1706070DC2892
:1008900020D9E0213E4804F0C5FA1BE05054A0786E
:1008A000401CC0B2A0706178081A002812DCE02257
:1008B0003749684604F09DFA9DF801000DF10201E8
:1008C0000025415C232902D10B2800D301250020FB
:1008D0002070A07039B0284630BD70B52D4C40F264
:1008E0002555ADF5007D2946204604F05BF900282A
:1008F0002ED02946204604F074F9204604F0EBF887
:100900002549C0B20870FFF7A3FF002820D00220BD
:100910001F4C8DF8F800C10166783EAD8DF8F96086
:10092000A81C04F07FFA3246E11CA81C04F061FA0E
:10093000F62241A9684604F05CFA04F1E0003EACFE
:1009400094E80E00FFF79FFCE021114804F06AFADA
:100950000DF5007D70BD01460D48E030FFF7C7BCC6
:1009600070B50C46C17C012902D1017D052901D059
:10097000002070BD00F1150500F11F011022204676
:1009800004F037FAD5F81A002063012070BD00008A
:10099000DC05002000440040100000202DE9FF4F3E
:1009A0009646002282B09A464FEA020900EB820383
:1009B000198921B3598911B3FE494FF0010801EBA0
:1009C0008206103101EB82040399019133F9081F6B
:1009D000356800954F1B05FB01FCD4F800B018EBFF
:1009E000EC7C01D0F44601E0DDF804C08F4200D178
:1009F0000DB1D34504DB19803160C4F800900CE0E0
:100A0000002F00DA7F42674505DD009919802168D3
:100A1000491C216001E019803160521C042AC5DBA9
:100A200006B0BDE8F08F2DE9F84F824600264FF062
:100A30007E5B00BFDF480AEB8607203000EB06151F
:100A4000B7F908406868B7F80A9010F0FF4F5DD01A
:100A5000A96804F0F2F90090E96804F0EEF90146A3
:100A6000009804F074FA8046204604F0AEFA2C6830
:100A7000214604F034FA414604F037FA214604F0E6
:100A8000DCF928604146584604F029FA009904F040
:100A90002CFA6860C748603000EB0614606810F0FC
:100AA000FF4F3DD0A16804F0C8F90090E16804F060
:100AB000C4F90146009804F04AFA8046484604F01A
:100AC0008DFAD4F80090494604F009FA414604F042
:100AD0000CFA494604F0B1F920604146584604F04A
:100AE000FEF9009904F001FA6060286805F03DFA0B
:100AF00004F079FA3881206805F037FA04F08CFAAE
:100B0000761C7881042E95DBBDE8F88F204604F032
:100B10005CFAC5E9000BA848A860A848E860B9E7F6
:100B2000484604F05BFAC4E9000BA548A0604FF00A
:100B30007C50E060D9E72DE9F05F0F4681461D4605
:100B4000164600241946104604F077F980463946C7
:100B5000484604F072F9414604F0C1F904F043FA42
:100B600099490246DFF85CC20020CB684FF0010AC9
:100B7000E14505DB674503DB664501DB654506DAD4
:100B8000002B02DB4FF0FF33CB605B1E05E0002B38
:100B900002DC5346C1F80CA05B1CCB6013F1030FC1
:100BA00002DCC1E902A005E0032B03DB0B690BB9F2
:100BB000C8608860854B994500DA0124DFF810C2CF
:100BC000674500DC641C664500DC641C9D4200DA5D
:100BD000641C042C09D0002C01DC486188617A4B2C
:100BE0008C68DB69012C03D038E0C1F814A0F6E76B
:100BF0008C697CBB4C69012C20D0DFF8D8C14FF048
:100C00000A084FF00B0B4FF0030EE14511DB724C5D
:100C1000A7420EDBA6420CDB65450ADB6F4CA14503
:100C200007DBDFF8BCC1674503DB664501DBA54296
:100C300011DA002A0BDAC1F8108005E0002A01DA87
:100C400005200AE0062008E0C1F81CE008E0C1F831
:100C500010B0F9E702E0002B02DC0861002B02DB98
:100C6000C869401EC8610869052801D0062801D15D
:100C7000C1F818A0BDE8F09F0146002091F832109D
:100C8000C1F30212012A05D10A0603D40320CA07C0
:100C900001D0012070478A0701D5042070474A0718
:100CA00001D5052070470907FCD5062070472DE9BE
:100CB000F0414C4D0F46044616460121284602F0ED
:100CC00029FE284602F084FD00214FF4800003F045
:100CD00045F800F07BF9304600F0A9FF2146384680
:100CE00000F0BBFF00F0DEFA3F4801F08AF83E4C0E
:100CF000206804F06AF90746606804F066F9064661
:100D0000A06804F062F90546E06804F05EF93B462D
:100D100032462946FFF70FFF00B2BDE8F08110B55B
:100D200090F832300022C3F302142749012C03D07B
:100D300013F0700F0DD014E01B064A7004D48B78AA
:100D40005B1C8B70CA700BE08A70CB785B1CCB701D
:100D500006E01B0605D44A708A70CA700A79521CD4
:100D60000A7190F83300C00701D001200DE08878A7
:100D7000052801D3042008E0C878052801D3032002
:100D800003E00879052801D302200870087810BD17
:100D900030B5084A00213C3A01EB410300EB430324
:100DA0001C8A2CB100EB810402EB810524882C8184
:100DB0005B8A1BE0100C0020CDCCCC3E3333333F9C
:100DC0009A99993E0000144218000020000020412A
:100DD0000000704100006041000040410000984167
:100DE0000000B04100580040140D00202BB100EB72
:100DF000810302EB81045B886381491C0429CBDBFE
:100E000030BD2DE9F047D0B0002514276846FFF724
:100E1000A2FD6B4EDFF8A4814FF06409AA46A6F14B
:100E2000DC04F8B141A90DF10200FFF799FD20B3F0
:100E300098F8050001223254401CB0FBF9F309FB7D
:100E4000130088F8050041A8FFF7A2FF1923232209
:100E50003C212046FFF7A2FD2046FFF7E4FD4D9818
:100E600020630AE098F8050006F800A0401CB0FBDB
:100E7000F9F309FB130088F805000020315C401CE1
:100E80002944C0B2CDB26428F8D3BD4214D34C4833
:100E9000DC38FFF7F1FE84F8340094F83300C0F337
:100EA0004200022803D0022084F8350006E04448BE
:100EB000DC38FFF734FFF7E784F835A0BD4203D3F1
:100EC000012050B0BDE8F0870020FAE770B5FFF7C9
:100ED0007BF93A4D00243B4ED5E90A12411A64EBE6
:100EE000020042F21072891A70F1000017D3FFF766
:100EF0006BF9C5E90A04FFF784FF60B1D5E90C017D
:100F0000401C41F1000132220023C5E90C0103F02D
:100F100035FF1A4324D02021304602F0E8FBFFF7CA
:100F200053F9D5E90812411A64EB02004CF2503231
:100F3000891A70F100003FD3FFF746F9C5E90804AC
:100F40001F4CDC3C60896060B4F90800206094F8B4
:100F5000350005281AD2DFE800F008080B19130045
:100F60002021304602F0C5FBD9E701F0F7FC0DE087
:100F700064202087144A0A21782001F055FE05E0FC
:100F80004620208794F8340001F01FFE94F83520A5
:100F9000D4E90001FFF78BFE10F0FF0084F8370062
:100FA0004FF01001304603D0BDE8704002F0A1BB05
:100FB000BDE8704002F09BBB70BD0000180000202F
:100FC000B00C0020001001400000C84208B501210B
:100FD000082002F0BAFE4FF44060ADF80000102087
:100FE0008DF8030003208DF802006946F84802F0EE
:100FF00010FBF8480121C0F8A8110021C0F8AC117D
:1010000008BD70B5F248001D016821F4704101600F
:10101000016841F440510160EE4C0120C4F8AC017C
:10102000C4F8A801042004F5D474FFF7A3F8002540
:1010300065600420FFF79EF8256070BDE44810B598
:10104000001D016821F470410160016841F44051C4
:101050000160E04C0020C4F8A801C4F8AC010420F1
:1010600004F5D474FFF786F8012020606060BDE8C5
:1010700010400420FFF77EB870B5D5480024001D4D
:10108000016821F470410160016841F40041016090
:10109000D04D0126C5F8AC610220FFF76BF8C5F80A
:1010A000A8610220FFF766F807E0641CE4B2FA2C9E
:1010B00003D9FFF7C3FF012070BDD5F82C0100282C
:1010C000F3D1C5F8A80170BD70B5C24C0025C4F8B5
:1010D000A851BF48001D016821F4704101600168FA
:1010E00041F440510160C4F8AC51022004F5D474BD
:1010F000FFF740F8012020600220FFF73BF8256051
:1011000070BD70B5B34C0025C4F8A851B048001D9F
:10111000016821F470410160016841F440510160AF
:101120000126C4F8AC61022004F5D474FFF722F85C
:1011300026600220FFF71EF8256070BD2DE9F04102
:101140000646A348001D016821F470410160016852
:1011500041F4405101609F4C0027C4F8A8713D46FE
:101160004FF00108F009C4F8AC017006060E01202A
:10117000FFF700F8C4F8A8810120FEF7FBFFC4F8D0
:10118000A8710120FEF7F6FF6D1CEDB2082DE9D322
:10119000BDE8F0812DE9F0418D480024001D016873
:1011A00021F470410160016841F400410160894E01
:1011B000254627464FF00108C6F8A8710120FEF722
:1011C000D9FFC6F8A8816006040ED6F82C0108B134
:1011D000641CE4B20120FEF7CDFF6D1CEDB2082DBA
:1011E000EAD32046D4E770B516460D460446FFF70D
:1011F00008FF2046FFF7A2FFFFF73EFF58B9304631
:10120000FFF79CFFFFF738FF28B92846FFF796FF46
:10121000FFF732FF18B1FFF711FF002070BDFFF795
:101220000DFF012070BD2DE9F0411C4617460D460B
:101230000646FFF7E6FE3046FFF780FFFFF71CFF8C
:1012400008B1012111E03846FFF778FFFFF714FFDE
:1012500008B1032109E0FFF7D4FE46F00100FFF7D3
:101260006DFFFFF709FF88B104215BA0FFF7D5F9F7
:10127000FFF7E4FE00208BE7012C0DD0FFF78AFF7B
:101280002870FFF721FF641EA4B26D1C002CF3D15F
:10129000FFF7D4FE01207BE7FFF77CFF2870FFF704
:1012A00030FFF0E710B5012186B0880502F056FD49
:1012B0000121082002F049FD4FF44060ADF8100014
:1012C00003208DF812001C208DF8130004A940485B
:1012D00002F09FF9444C204602F07AFA0A20ADF859
:1012E00004004BF6FF70ADF80600FA20ADF80800D8
:1012F0002015ADF80A000001ADF80C003B48009045
:101300006946204602F077FA0121204602F0DAFA17
:101310000121204602F008FB06B010BD10B5324C8A
:10132000A04211D10121204602F0F4FA204602F039
:101330004FFA00214FF4800002F010FD0120FEF76B
:1013400025FFBDE81040ADE710BD70B50E4605465F
:1013500042F2107406E0641E04D22846FFF7DEFF56
:10136000012070BD3146284602F07FFB0128F2D1F2
:10137000002070BD2DE9F0410D461E46174604467B
:10138000012102F0BDFA1A492046FFF7DEFF0022D4
:101390002946204602F0FBFA16492046FFF7D5FF02
:1013A0003946204602F0EEFA124D2046AD1C294681
:1013B000FFF7CBFF3146204602F0E4FA29462046EB
:1013C000FFF7C3FF2046BDE8F041012102F0A2BAB9
:1013D000000C014000802142454F52525F42495467
:1013E0003A25640D0A0000000058004068A7040078
:1013F00001000300820007002DE9F05F1C469146C2
:101400008A4683460025AC4F4FF400380A9E08E018
:101410006D1CBD4202DD5846FFF780FFA7A0FFF715
:10142000FCF84146584602F033FB0028F0D1012178
:10143000584602F065FAA6495846FFF786FF002293
:101440005146584602F0A3FAA2495846FFF77DFFDD
:101450004946584602F096FA9E4D5846AD1C29461C
:1014600006E02178584602F08DFA29465846641C59
:10147000FFF76BFF761EF6B2F3D20121584602F059
:1014800049FA0020BDE8F09F2DE9F05F1E46914625
:101490008A4683460025884F4FF400380A9C08E0AE
:1014A0006D1CBD4202DD5846FFF738FF8AA0FFF7EA
:1014B000B4F84146584602F0EBFA0028F0D1012179
:1014C000584602F01DFA824D58462946FFF73DFF67
:1014D00000225146584602F05AFA7E495846FFF714
:1014E00034FF0121584602F0EDF94946584602F012
:1014F00049FA78495846891CFFF727FF01215846C9
:1015000002F0FEF929465846FFF71FFF0122514617
:10151000584602F03CFA691C5846FFF716FF6C4D1E
:101520003F3515E0012C07D10021584602F0FCF9A7
:101530000121584602F0EEF929465846FFF705FF0B
:1015400030B9584602F020FA641E06F8010BA4B226
:10155000002CE7D15846BDE8F05F012102F0E4B964
:101560002DE9FF5F1F46914683464FF47A740025AC
:101570005E4E4FF4003800E06D1C4146304602F0EC
:1015800087FA08B1A542F7DDA54201DB304612E03B
:101590000121B046304602F0B3F900254C4E00E080
:1015A0006D1C3146404602F060FA08B9A542F7DDED
:1015B000A54205DD4046FFF7B1FE002004B061E71B
:1015C00000225946404602F0E2F90025DFF804A166
:1015D00000E06D1C5146404602F047FA08B9A542AA
:1015E000F7DDA542E6DA01214546404602F06AF9F8
:1015F0002846019902F0C6F9DFF8D8A000250AF1C3
:10160000020A00E06D1C5146404602F02EFA08B96D
:10161000A542F7DDA542CDDA0121404602F070F97E
:10162000B2460025464600E06D1C5146304602F0A9
:101630001CFA08B9A542F7DDA542A7DA01225946EE
:10164000304602F0A4F9DFF88880002508F101088F
:1016500000E06D1C4146304602F007FA08B9A54289
:10166000F7DDA54292DADFF8688008F13F08E7B1BC
:10167000012F09D10021304602F056F901213046F0
:1016800002F048F900E06D1C4146304602F0EDF9E9
:1016900008B9A542F7DDA542CFDA304602F074F969
:1016A0007F1E09F8010BBFB2E1E70121304602F0CD
:1016B0003BF9012082E70000400D03004949432027
:1016C00057726974652062757379310D0A000000E4
:1016D00001000300820007004949432057726974E2
:1016E000652062757379320D0A00000000580040D1
:1016F00002467820FFF777BD01464020F8E7014613
:101700000020F5E710B50446B031C8B2FFF7F7FF87
:10171000102040EA1410FFF7F2FF04F00F00BDE8BC
:10172000104040F00100EAE72DE9F047002591461E
:101730008A460446012B22D0DFF8B084022B24D144
:1017400055E02038C7B27E2C04D90AF101000024EC
:1017500000F0FF0A51462046FFF7D4FF07EB470091
:10176000002608EB4007B85DFFF7C6FF761CF6B20F
:10177000062EF8D3A41D6D1CE4B2EDB201E0DFF833
:10178000708419F805000028DBD1BDE8F087203807
:10179000C7B2782C04D90AF10100002400F0FF0A36
:1017A00051462046FFF7AEFF5FF0000606EB07113B
:1017B00018F80100FFF7A0FF761CF6B2082EF5D34B
:1017C0000AF10100C1B22046FFF79CFF5FF000065E
:1017D00006EB071101EB0800007AFFF78DFF761C7E
:1017E000F6B2082EF4D308346D1CE4B2EDB219F849
:1017F00005000028CBD1C8E72DE9F0410F4680460F
:1018000000255401FFF77EFFFA4E305DFFF774FFAD
:101810006D1CEDB2641C102DF7D37F1CF9B240464D
:10182000FFF770FF0025305DFFF766FF6D1CEDB21E
:10183000641C102DF7D3BDE8F08170B50646002476
:1018400004F1B000C0B2FFF75AFF0020FFF757FFC6
:101850001020FFF754FF00253046FFF74DFF6D1CA9
:10186000EDB2802DF8D3641CE4B2082CE8D370BD2F
:101870000020E2E710B507287DD2DFE800F0F6048B
:101880001A61A5ACB5000020FFF7D7FF00220321A5
:101890001320FFF7B1FF012203212D20FFF7ACFF3A
:1018A000022203214720FFF7A7FF032211466120F0
:1018B00087E00020FFF7C1FF082200210B20FFF77F
:1018C0009BFF092200212920FFF796FF0922002112
:1018D0004B20FFF791FF0E2200216920FFF78CFFBC
:1018E000122203210020FFF787FF05220321102089
:1018F000FFF782FF0223C0A203212020FFF714FF7D
:101900001B2203214020FFF777FF0223BAA2032105
:101910005020FFF709FF142206210020FFF76CFF7B
:101920000223B5A206211020FFF7FEFE1322062196
:101930004020FFF761FF02230621AFA2502092E072
:101940000020FFF77AFF0A2200210B20FFF754FF47
:101950000B2200212920FFF74FFF0C2200214B20F2
:10196000FFF74AFF0D2200216920FFF745FF0622FD
:101970000321102000E078E0FFF73EFF072203215B
:101980002020FFF739FF02239BA203213020FFF71D
:10199000CBFE192203215820FFF72EFF0422062137
:1019A0001020FFF729FF052206212020FFF724FF42
:1019B000022391A206213020FFF7B6FE0522062160
:1019C0005820FFF719FF50E0152203213F20FFF7B1
:1019D00013FF162205E0082203213F20FFF70CFF2A
:1019E000092203214F20ECE70020FFF726FF1722F2
:1019F00000211320FFF700FF182200212D20FFF700
:101A0000FBFE0C2200214720FFF7F6FE0D220021ED
:101A10006120FFF7F1FE062203210820FFF7ECFE0C
:101A2000072203211820FFF7E7FE132203212820B5
:101A3000FFF7E2FE022370A203213820FFF774FEB5
:101A4000062211460820FFF7D7FE0722062118209C
:101A5000FFF7D2FE142206212820FFF7CDFE022335
:101A600065A206213820FFF75FFEBDE81040012087
:101A7000FEF78CBB10B5C820FEF788FBAE20FFF741
:101A80003EFE2020FFF73BFE1020FFF738FEB0207F
:101A9000FFF735FEC820FFF732FE0020FFF72FFECC
:101AA0001020FFF72CFE4020FFF729FE8120FFF7D2
:101AB00026FEFF20FFF723FEA120FFF720FEA62031
:101AC000FFF71DFEA820FFF71AFE3F20FFF717FEC5
:101AD000A420FFF714FED320FFF711FE0020FFF72C
:101AE0000EFED520FFF70BFEF020FFF708FED920F1
:101AF000FFF705FE2220FFF702FEDA20FFF7FFFDC9
:101B00001220FFF7FCFDDB20FFF7F9FD2020FFF797
:101B1000F6FD8D20FFF7F3FD1420FFF7F0FDBDE883
:101B20001040AF20EBE510B5FFF750FAFFF7A2FF2A
:101B3000FF20FFF782FE0020FFF77FFE0120FFF766
:101B400099FEBDE81040032094E610B58D20FFF704
:101B5000D6FD1420FFF7D3FDBDE81040AF20CEE541
:101B600010B58D20FFF7CBFD1020FFF7C8FDBDE8B5
:101B70001040AE20C3E52DE9F0479846174682464F
:101B800000260C46DDF8209011E021465046FFF774
:101B9000B9FD554607E000BF19F80600761CFFF7AF
:101BA000ABFD6D1CEDB2BD42F6D3641CE4B24445FE
:101BB000EBD3EAE510B5012820D002282FD0032866
:101BC00034D10A2200210B20FFF716FE0B22002140
:101BD0002920FFF711FE0C2200214B20FFF70CFEFD
:101BE0000D220021BDE81040692005E604620008CE
:101BF000DC5F00085C0000203A00000008220021A1
:101C00000B20FFF7F9FD092200212920FFF7F4FD41
:101C1000092200214B20FFF7EFFD0E22E1E71C22F5
:101C200000210B20FFF7E8FD1D22D0E710BD4D4934
:101C300004280A7808D003280AD002280CD1032AE5
:101C40000AD003200870B5E7012A05D00120F9E782
:101C5000022A01D00220F5E770472DE9F04188B053
:101C60000E4605462021684603F0DCF828463D4D27
:101C7000DFF8F480FF2469684746FF2904D0411A41
:101C800000D549420A2903DB686003F09EF9074644
:101C9000A868FF281AD0864201D03446AE60474576
:101CA00034D0384603F0CCF903F09FF842F20F71BC
:101CB00088422BDA2021684603F0B4F82B482C49DF
:101CC000874206DD2B48874203DD0BE03446AE60D9
:101CD000E5E7384603F03BF903F0B2F90B4602465C
:101CE00025A10AE026488742F3DC384603F02FF9A5
:101CF00003F0A6F90B46024622A1684603F0A2FCB7
:101D000002236A4603213820FFF70EFDFF2C27D05F
:101D1000002C01DB204600E06042632808DC002C38
:101D200006DD2021684603F07DF8224617A10EE06B
:101D3000002C01DB204600E06042632810DC002C10
:101D40000EDA2021684603F06DF8224611A168469C
:101D500003F078FC02236A4606213820FFF7E4FCF2
:101D600008B068E55000002000007F4300001041EB
:101D70000000C84200C0794425302E3266000000C1
:101D8000003C1C4625302E316600000020256420D2
:101D900000000000256400002DE9F0470C4603F028
:101DA00014F9474F814657F8241003F09BF803F0CD
:101DB00047F921F0004103F008F907F11401414E01
:101DC00041F8240001467068054603F036F80146E4
:101DD000284603F0BCF8A7F11408306058F82460D6
:101DE00005464846314603F07AF8294603F07DF867
:101DF000314603F022F848F8240047F82490BDE863
:101E0000F0872DE9FF41804600200090019002906C
:101E1000014603906424022303AA0420FFF7A0FBD9
:101E2000022301AA00211820FFF79AFB022302AA2D
:101E300000212C20FFF794FB02236A46002140205A
:101E4000FFF78EFBBDF80C0040BA642800DB20468B
:101E5000BDF804104FBA642F00DB2746BDF8081008
:101E60004EBA642E00DB2646BDF800104DBA642D34
:101E700000DB254630B10321FFF78EFF03F0B3F8F6
:101E8000C8F800003FB102213846FFF785FF03F094
:101E9000AAF8C8F804003EB101213046FFF77CFFE4
:101EA00003F0A1F8C8F80800002D07D0002128464B
:101EB000FFF772FF03F097F8C8F80C00BDE8FF8148
:101EC000380D00201C04002010B5012188B0084600
:101ED00001F044FF0121042001F037FF0320ADF899
:101EE000180004208DF81B0006A9F84801F091FBAA
:101EF000684602F096FA00204FF6FE71ADF8041025
:101F0000ADF80000ADF80600ADF802004FF08044D7
:101F10006946204602F000F800231A4603212046B5
:101F200002F020FB03A802F08FFA0A20ADF814009B
:101F300003A9204602F0A8F90121204602F0BCFCCA
:101F400001221146204602F0A5FA0021204602F0A7
:101F50008AFC0121204602F088FA08B010BD7FB546
:101F60000121084601F0F1FE0121102001F0EDFEF3
:101F70000124ADF80C4048208DF80F0003208DF8A7
:101F80000E0003A9D24801F044FB0021022001F019
:101F9000F8FB00258DF8045010208DF80500009402
:101FA0008DF80640684601F039F806208DF80800E3
:101FB0008DF809408DF80A508DF80B4002A800F00A
:101FC000E8FE7FBD1FB50121084601F0BEFE0121DC
:101FD000102001F0BAFE0224ADF80C4048208DF824
:101FE0000F0003208DF80E0003A9B94801F011FB82
:101FF0000121022001F0C5FB00208DF80400102013
:1020000000948DF8050001248DF80640684601F023
:1020100005F807208DF808008DF809408DF80A4072
:102020008DF80B4002A800F0B4FE1FBD1FB50121C2
:10203000084601F08AFE0121102001F086FE0424EA
:10204000ADF80C4048208DF80F0003208DF80E00ED
:1020500003A99F4801F0DDFA0221084601F091FB37
:1020600000208DF80400102000948DF80500012454
:102070008DF80640684600F0D1FF08208DF8080072
:102080008DF8094002208DF80A008DF80B4002A857
:1020900000F07FFE1FBD7FB50121084601F055FE0F
:1020A0000121102001F051FE0824ADF80C40482019
:1020B0008DF80F0003258DF80E5003A9844801F018
:1020C000A8FA0321022001F05CFB00208DF8040037
:1020D000102000948DF8050001248DF80640684614
:1020E00000F09CFF09208DF808008DF809408DF85C
:1020F0000A508DF80B4002A800F04BFE7FBD1FB5C3
:102100000121084601F021FE0121102001F01DFEF1
:102110004024ADF80C4048208DF80F0003208DF8C6
:102120000E0003A96A4801F074FA0621022001F0AA
:1021300028FB00208DF80400102000948DF8050085
:1021400001248DF80640684600F068FF17208DF8DE
:1021500008008DF8094004208DF80A008DF80B4026
:1021600002A800F016FE1FBD1FB50121084601F0B0
:10217000ECFD0121102001F0E8FD8024ADF80C40B9
:1021800048208DF80F0003208DF80E0003A9504859
:1021900001F03FFA0721022001F0F3FA00208DF848
:1021A0000400102000948DF8050001248DF80640ED
:1021B000684600F033FF17208DF808008DF80940BD
:1021C00005208DF80A008DF80B4002A800F0E1FD13
:1021D0001FBD10B5FFF778FEFFF7C1FEFFF7F2FE57
:1021E000FFF724FFFFF757FFFFF789FFBDE8104017
:1021F000BAE700223749012807D0022809D003286E
:102200000BD004280FD00020704708880A6000B265
:10221000704788884A6000B270474FF08041B1F93A
:1022200024008A84704708898A60404200B270475F
:102230002849012807D0022807D0032807D00428FE
:102240000AD000207047088808E0888806E04FF030
:102250008040B0F9240070470889404200B27047BE
:102260001D49022008601D4AD2F804311949D2F8EC
:102270000021012B886801D00AB103E012B1401E91
:1022800088607047401CFBE7134901200860134A2F
:10229000D2F800310F49D2F8042188680BB10AB195
:1022A00003E012B1401E88607047401CFBE70A49FA
:1022B00008200860094AD2F80C310649D2F80821F2
:1022C000012B48680CD062B10EE00000000801400C
:1022D00000100140240400201404014000002242A8
:1022E00012B1401E48607047401CFBE7FE490420C5
:1022F0000860FE4AD2F80831FD49D2F80C2148683E
:102300000BB10AB103E012B1401E48607047401C97
:10231000FBE770B5402000F0C4FEF34EF44CF34DE3
:1023200080B140203060D5F818010028D5F81C0194
:1023300001D008B103E010B12068401E01E0206820
:10234000401C2060802000F0ACFE00280DD08020D2
:102350003060D5F81C010128D5F8180101D008B16A
:1023600004E018B12068401E206070BD2068401C49
:10237000FAE770B50C46054688B00121022001F04D
:10238000EDFCADF810400024ADB2DA4EADF81450BB
:10239000ADF81640ADF812408DF8184004A930464B
:1023A00001F0BAFD0121304602F015F96020ADF8C8
:1023B00000000120ADF80200ADF80440ADF80C407B
:1023C000ADF80840ADF80E40ADF80640ADF80A4053
:1023D0006946304601F0D9FD0821304602F034F953
:1023E0006946304601F006FE0821304602F036F913
:1023F0006946304601F03AFE0821304602F02EF9D7
:102400006946304601F06CFE0821304602F02CF996
:102410000121304602F029F80121304602F02FF860
:102420002946304602F021FA0021304602F01FFA18
:102430000021304602F01DFA0021304602F01BFA5E
:102440000021304602F019FA08B070BD70B50C4694
:10245000054688B00121042001F080FCADF8104051
:102460000024ADB2A44EADF81450ADF81640ADF84E
:1024700012408DF8184004A9304601F04DFD0121AD
:10248000304602F0A8F86020ADF800000120ADF859
:102490000200ADF80440ADF80C40ADF80840ADF8CE
:1024A0000E40ADF80640ADF80A406946304601F0EE
:1024B0006CFD0821304602F0C7F86946304601F04D
:1024C00099FD0821304602F0C9F86946304601F00E
:1024D000CDFD0821304602F0C1F86946304601F0D2
:1024E000FFFD0821304602F0BFF80121304601F01F
:1024F000BCFF0121304601F0C2FF2946304602F000
:10250000B4F90021304602F0B2F90021304602F061
:10251000B0F90021304602F0AEF90021304602F059
:10252000ACF991E738B50121082001F00EFC01213A
:10253000042001F00AFC0121084601F006FC40F2EB
:10254000C330ADF8000018248DF8034003258DF842
:1025500002506946694801F05CF8C020ADF80000FF
:102560008DF803408DF802506946654801F051F836
:1025700041F61F4400212046FFF7FBFE00212046C4
:10258000FFF764FF38BD5B4A4FF4E1513C32131D45
:10259000002804DD1180C0F5E150188070471980D3
:1025A00000F5E15010807047524B4FF4E151383341
:1025B0001A1F002804DA198000F5E15010807047D6
:1025C0001180C0F5E150188070474B4B4FF4E1513A
:1025D00034331A1D002804DA198000F5E150108008
:1025E00070471180C0F5E15018807047424A4FF49F
:1025F000E1514032131F002804DD1180C0F5E15085
:1026000018807047198000F5E1501080704710B5B0
:1026100041F6BC3300225C42354901280AD0022829
:1026200011D0032818D004280CD1086E00281CDB18
:102630000B661BE0086B002801DB0B6300E00C63FA
:102640004A638A6310BD086C002801DB0B6400E05C
:102650000C644A648A6410BD086D002801DB0B65B8
:1026600000E00C654A658A6510BD0C664A668A669C
:1026700010BD2DE9F0411E4C0E1AE662A06B8519C3
:102680002846A56302F0A1FC616902F02EFC804699
:10269000304602F09AFC216902F027FC0746606B85
:1026A000301A02F092FCE16802F01FFC394602F099
:1026B000C4FB414602F0C1FB0646206B02F085FCDC
:1026C000314602F0BAFB02F08EFC2063B5F5167FAE
:1026D00002DA15F5167F05DC0120FFF798FFE06EA2
:1026E000401CE066E06A0DE0140401400000224254
:1026F000240400200004004000080040000C0140B9
:10270000000801406063206BBDE8F0812DE9F041D5
:10271000F84C0E1AE663A06C85192846A56402F0F1
:1027200054FC616902F0E1FB8046304602F04DFC4A
:10273000216902F0DAFB0746606C301A02F045FCB2
:10274000E16802F0D2FB394602F077FB414602F025
:1027500074FB0646206C02F038FC314602F06DFB3B
:1027600002F041FC2064B5F5167F02DA15F5167FFC
:1027700005DC0220FFF74BFFE06E401CE066E06BDB
:102780006064206CC0E72DE9F041DA4C0E1AE66473
:10279000A06D85192846A56502F017FC616902F055
:1027A000A4FB8046304602F010FC216902F09DFB3C
:1027B0000746606D301A02F008FCE16802F095FBF4
:1027C000394602F03AFB414602F037FB0646206DDF
:1027D00002F0FBFB314602F030FB02F004FC206506
:1027E000B5F5167F02DA15F5167F05DC0320FFF735
:1027F0000EFFE06E401CE066E06C6065206D83E7D4
:102800002DE9F041BB4C0E1AE665A06E85192846ED
:10281000A56602F0DAFB616902F067FB804630468C
:1028200002F0D3FB216902F060FB0746606E301AAC
:1028300002F0CBFBE16802F058FB394602F0FDFAEA
:10284000414602F0FAFA0646206E02F0BEFB31461F
:1028500002F0F3FA02F0C7FB2066B5F5167F02DA44
:1028600015F5167F05DC0420FFF7D1FEE06E401C55
:10287000E066E06D6066206E46E79E4A41F6BC3138
:102880004842136F834201DA106702E08B4200DD99
:102890001167536F834201DA506702E08B4200DD1B
:1028A0005167936F834201DA906702E08B4200DD4B
:1028B0009167D36F834201DAD06770478B42FCDDAA
:1028C000D167704710B503460120FFF792FC894994
:1028D000803108601946FFF7CCFE864C2067FFF771
:1028E000CCFF206FBDE810404DE610B50346022036
:1028F000FFF77FFC7F49803148601946FFF706FFEC
:102900007C4C6067FFF7B9FF606FBDE810404BE695
:1029100010B503460320FFF76CFC764980318860D0
:102920001946FFF730FF734CA067FFF7A6FFA06FB3
:10293000BDE8104049E610B503460420FFF759FCF6
:102940006C498031C8601946FFF75AFF694CE0674F
:10295000FFF793FFE06FBDE8104047E600B50120A8
:10296000FFF747FC0220FFF744FC0320FFF741FC80
:102970000420FFF73EFC0020FFF705FE0020FFF7D4
:1029800013FE0020FFF721FE00205DF804EB2DE68A
:1029900030B5584CD4E91C03D4E91E120028054672
:1029A00000DA6D42002B00DA5B422B44002900DA8A
:1029B00049421944002A00DA52421144B1F5FA5F43
:1029C00002DABDE83040C9E7C0EBC0000A2590FB41
:1029D000F5F02067FFF7D7FD606FC0EBC00090FBFC
:1029E000F5F06067FFF7E0FDA06FC0EBC00090FB63
:1029F000F5F0A067FFF7E9FDE06FC0EBC00090FBCA
:102A0000F5F0E067BDE83040F0E570B51C461546CE
:102A10000E46FFF757FF3046FFF767FF2846FFF7E0
:102A200077FF2046BDE8704085E770B51C46154627
:102A30000E46FFF7A8FD3046FFF7B6FD2846FFF724
:102A4000C4FD2046BDE87040D0E570B506464FF0A5
:102A50007E5102F047FA284D04462946304602F0DE
:102A600044FA294602F0E9F92146BDE8704002F037
:102A70006EBA2DE9F04114460D4602F0A6FA07465B
:102A8000294602F064FA1C4902F02FFA064639463C
:102A900002F0D3F905463046394602F023FA0646DD
:102AA000A4B1012C18D0022C1BD0032C26D185F008
:102AB000004002F098FA044686F0004002F093FAD3
:102AC0002346BDE8F04101461A469EE7284602F03B
:102AD0008AFA04463046F1E702F085FA04462846B1
:102AE000ECE780F0004002F07EFA044685F00040FA
:102AF000E4E70000240400200000204104E62DE962
:102B0000F04188460546174611464FF07E5002F0C8
:102B1000E6F9694E04463146384602F0E6F9314698
:102B200002F08BF9214602F012FA0146002D02DD77
:102B30004FF0000202E005DA4FF001024046BDE826
:102B4000F04196E7E0E5031EC2F1000003DD0B460D
:102B50001A46014603E003DA03461A46084654E7DC
:102B6000704710F1500F01DD502801DB534A2AE075
:102B700010F1460F01DD462801DB514A23E010F138
:102B80003C0F01DD3C2801DB4E4A1CE04E4A10F1AF
:102B9000320F18DD322816DA10F1280F13DD28283D
:102BA00011DA10F11E0F01DD1E2801DB474A0AE091
:102BB000474A10F10F0F06DD0F2804DA10F10A0F53
:102BC00001DD0A2800DB9AE770470146414830B42E
:102BD000008F414B6FF02C040C2923D2DFE801F069
:102BE000220606080A0F142222221A1D034603E0B9
:102BF00030BCB3E6434218461A46114608E02D227F
:102C000021461346084603E02D202246234601466E
:102C100030BCFAE62D20032201E02D20022230BC38
:102C2000194626E730BC70472DE9F04129492B4C65
:102C30008B8891F837600978276A4DB29BB200F112
:102C4000140107B92162276ABB4200DBFEB1216291
:102C50008B4218DA606A401C6062A16A491CA1625A
:102C6000192D03DD052801DD052018E015F1190FE8
:102C700003DA052801DD062011E0322B1AD30020EB
:102C8000A06203200BE0002E14D0304607E005F1CF
:102C90000A01A0F11406142904D802202662BDE816
:102CA000F04192E7104602F0B7F981B22846FFF7EB
:102CB00058FF266228E5000000002041CDCCCC3D25
:102CC000CDCC4C3E9A99993ECDCCCC3E9A99193FA9
:102CD0003333333FD40B00200000A04124040020F4
:102CE00010B586B000F026FF4FF48034204600F087
:102CF0003AFF00F065FF28B3102000F005FA02202B
:102D000000F0F2F9002000F093FF002000F09EFF99
:102D1000A01100F094FF601000F0ADFF4FF4E0113F
:102D2000204600F06EFF012000F073FF392000F014
:102D300032FF0028FAD0022000F06EFF00F073FF8F
:102D40000828FBD1684600F0B7FF06B010BD10B5EB
:102D500001F0BAFFFFF7C4FFFDF7F6F9FDF7C6FB78
:102D6000FDF725FCFDF75CFDFDF73EFDFEF7DBFE04
:102D7000FFF72FFABDE81040FFF7D4BBFFF7E7FFDE
:102D8000FEF7A4F8FCE7000028490843284908603A
:102D9000704770B50F23C47801780122F4B1244C38
:102DA0002468457804F4E064C4F5E064240AC4F1BE
:102DB0000406E3408478B5401C402C4301F1E02137
:102DC000230181F80034007800F01F018A40400997
:102DD000800000F1E020C0F8002170BD01F01F006C
:102DE00082404809800000F1E020C0F8802170BDD9
:102DF000104A114001430E48001F016070470C4A01
:102E0000121D0029116801D0014300E081431160C7
:102E100070474FF0E0210428086903D020F0040037
:102E20000861704740F00400FAE700000000FA056E
:102E30000CED00E080FFFF1F01684FF6FE721140AD
:102E400001600021016041608160C1606A496A4A95
:102E50000839904203D1486840F00F0006E0664A06
:102E60001432904204D1486840F0F0004860704746
:102E7000614A2832904203D1486840F47060F5E717
:102E80005D4A3C32904203D1486840F47040EDE71F
:102E9000594A5032904203D1486840F47020E5E727
:102EA000554A6432904203D1486840F47000DDE72F
:102EB000514A7832904203D1486840F07060D5E7BB
:102EC0004E4A111F904203D1086840F00F0006E0FF
:102ED0004A4A1432904204D1086840F0F000086079
:102EE0007047464A2832904203D1086840F4706027
:102EF000F5E7424A3C32904203D1086840F4704002
:102F0000EDE73E4A50329042EAD1086840F4702022
:102F1000E5E730B5036847F6F07293430C6A8A68B8
:102F20002243D1E904452C4322438C692243CC69D6
:102F300022434C6A22438C6A22431A430260CA68C5
:102F400042600A6882604968C16030BD002101604A
:102F500041608160C160016141618161C161016263
:102F60004162816270470029016802D041F001018D
:102F700002E04FF6FE72114001607047002A0268BD
:102F800001D00A4300E08A43026070474160704705
:102F9000406880B2704701460020CA0002D5174A37
:102FA000083A01E0144A083A12680A4200D00120A7
:102FB0007047C10003D51149091F086070470E49C9
:102FC00008394860704701460020CA0002D50B4A04
:102FD000083A01E0084A083A12680A4200D0012083
:102FE0007047C10003D50549091F086070470249B1
:102FF0000839486070470000080002400804024099
:10300000374900200860091D0860091D0860091D76
:1030100008603349334814310860704730B530498F
:103020008379026853B30B6893430B600A1D1368DE
:103030000468A343136002790A44136804682343B5
:103040001360274A083213680468A3431360131DF2
:103050001C680568AC431C604479102C05D02144E1
:103060000A68006802430A6030BD116804682143A1
:103070001160196800680143196030BD0079084487
:1030800001689143016030BD0021016001710C2293
:10309000427181717047124910310A6802430A6017
:1030A000704701460E4A0020143212680A4200D0CE
:1030B000012070470A49143108607047084A0146E8
:1030C00000201268064B0A4014331B680B4202D0E2
:1030D000002A00D001207047014914310860704770
:1030E00000040140FFFF0F00FC4A116801F03801A5
:1030F000014311607047F9490A6822F008020A602A
:103100000A6802430A607047F4490A6822F0100214
:103110000A600A6802430A607047F048F04941605B
:10312000F04941607047ED48ED494160ED4941602B
:103130007047EA48016941F0800101617047E74842
:10314000016941F0800101617047E4490420CA68C7
:10315000D20701D001207047CA68520701D502206A
:103160007047C968C906FBD50320704700B5034600
:10317000FFF7EBFF03E000BFFFF7E7FF5B1E01284F
:1031800003D0002B00D1052000BD002BF4D1FAE7BD
:1031900070B505464FF430263046FFF7E7FF0428A8
:1031A00011D1CE4C206940F0020020616561206998
:1031B00040F0400020613046FFF7D8FF216941F61A
:1031C000FD721140216170BD30B54FF430252846A5
:1031D000FFF7CCFF042810D1C04C206940F0040058
:1031E0002061206940F0400020612846FFF7BEFFC3
:1031F000216941F6FB721140216130BD00B50346E3
:10320000FFF7A3FF03E000BFFFF79FFF5B1E01284E
:1032100003D0002B00D1052000BD002BF4D1FAE72C
:1032200030B54FF430252846FFF7E8FF042810D1C9
:10323000AA4C206940F004002061206940F0400061
:1032400020612846FFF7DAFF216941F6FB72114041
:10325000216130BDA1490020C969890700D501203D
:10326000704770B5A525FFF7F5FF00B100254FF4B5
:1032700030263046FFF77AFF042827D1974C98482C
:10328000A0609848A060206940F02000206120697B
:1032900040F0400020613046FFF768FF41F6EF76CE
:1032A00004280ED1206941F6DF71084020612069B1
:1032B00040F0100020618C4805804FF40050FFF76B
:1032C00055FF052802D021693140216170BDF8B554
:1032D000064600204FF4005C00900D466046FFF764
:1032E00045FF042816D17D4C206940F00100206183
:1032F00035806046FFF73AFF41F6FE77042806D195
:10330000B61C280C009630806046FFF72FFF21691D
:1033100039402161F8BDF0B506464FF400570D461F
:103320003846FFF723FF04280CD16C4C206940F08D
:103330000100206135803846FFF718FF2169BA1E69
:1033400011402161F0BDF0B506464FF400570D461F
:103350003846FFF70BFF042813D1604C6048A0608B
:103360006048A060206940F0100020613580384638
:10337000FFF7FCFE052804D0216941F6EF721140E9
:103380002161F0BD2DE9F041C04300F0FF0CC0F316
:103390000727C0F30746050E4FF400584046FFF7D5
:1033A000E5FE042837D14D4C4D49A1604D49A1603F
:1033B000216941F010012161BCF1FF0F08D04A489A
:1033C0000830A0F800C04046FFF7D0FE04281BD10B
:1033D000FF2F07D044480A3007804046FFF7C6FE5B
:1033E000042811D1FF2E07D03F480C3006804046FC
:1033F000FFF7BCFE042807D1FF2D07D03A480E3056
:1034000005804046FFF7B2FE052804D0216941F649
:10341000EF7211402161BDE8F08170B505464FF4AF
:1034200030263046FFF7A2FE042818D12B4C2C483A
:10343000A0602C48A060206940F020002061206935
:1034400040F0400020613046FFF790FE41F6DF710A
:10345000042805D0052802D022690A40226170BDE7
:10346000206908402061206940F0100020611E485A
:103470000DB1002100E0A52101803046FFF776FE66
:103480000528ECD0216941F6EF721140216170BD31
:10349000F0B5124C0746124816460D46A06011487A
:1034A000A0604FF4005C6046FFF760FE042814D172
:1034B000206940F01000206135430B493D43891CD1
:1034C00045F0F80008806046FFF750FE052804D05C
:1034D000216941F6EF7211402161F0BD00200240E8
:1034E00023016745AB89EFCD00F8FF1F1C48C06979
:1034F000800870471A48006A704719490020096817
:10350000890600D501207047154A0029116901D0AC
:10351000014300E081431161704701460020104AD9
:10352000012903D0D2680A4203D17047D169C90783
:10353000FBD0012070470A49C86070470849042041
:10354000CA68D20701D001207047CA68520701D566
:1035500002207047C968C906FBD5032070470000E8
:1035600000200240914910B5884206D10121042073
:1035700000F0FDFB002104203BE08D49884206D18C
:103580000121082000F0F3FB0021082031E08949E7
:10359000884206D10121102000F0E9FB0021102013
:1035A00027E08549884206D10121202000F0DFFB79
:1035B000002120201DE08149884206D101214020C0
:1035C00000F0D5FB0021402013E07D49884206D160
:1035D0000121802000F0CBFB0021802009E0794907
:1035E00088420AD184150121204600F0C0FB002149
:1035F0002046BDE8104000F0BABB10BD10B5012157
:10360000084600F0B4FB0021BDE81040012000F0A6
:10361000AEBBF0B5CA78002502F00F03D20601D583
:103620008A7813430A784FF00F0E12F0FF0F4FF015
:1036300001021DD0D0F800400F8802FA05F637408D
:10364000B74211D14FEA850C0EFA0CF724EA0707AE
:1036500003FA0CF43C43CF78282F02D0482F02D035
:1036600002E0466100E006616D1C082DE4D30460B1
:103670000C88FF2C1ED944685FF0000606F108078D
:1036800002FA07F50F882F40AF420FD14FEA860CA0
:103690000EFA0CF7BC4303FA0CF73C43CF78282F03
:1036A00000D14561CF78482F00D10561761C082EE6
:1036B000E4D34460F0BD4FF6FF71018002218170B8
:1036C0000421C17070470246002092680A4200D06F
:1036D00001207047806880B2704702460020D2689F
:1036E0000A4200D001207047C06880B27047016173
:1036F0007047416170470AB101617047416170478D
:10370000C160704741F48032826181618261816968
:10371000806970472C4B10B51A684FF680742240B0
:1037200042EA00100843186010BD2849C86170477C
:10373000F0B5254C002801DAE36900E06368420D2A
:10374000120185B2C0F301579540C0F30346032F21
:1037500005D0C2020AD50322B240934307E023F00A
:103760007062636823F07063636002E0AB4343F010
:10377000706201B12A43002801DAE261F0BD6260A3
:10378000F0BD10B58A0721F003040F49130F21443F
:103790000F228C689A4094438C608A689840024358
:1037A0008A6010BD0949C1F8DC007047000801407B
:1037B000000C0140001001400014014000180140BD
:1037C000001C014000200140000001400000204298
:1037D000C64910B588424FF0010101D14C0501E006
:1037E0004FF48004204600F0CBFA2046BDE810409C
:1037F000002100F0C5BA70B50446808886B00D4639
:1038000020F03F06684600F057FAB9490298B0FB2D
:10381000F1F189B20E43A680228822F001022280B3
:10382000B44B2A689A421CD85200B0FBF2F080B226
:10383000042800D20420491C2184A083208840F061
:103840000100208021884FF6F5300140A8886A8960
:10385000104308432080A88929890843208106B0A5
:1038600070BDEB88A3F53F46FF3E0BD002EBC203D1
:1038700003EB0212B0FBF2F080B240F4804002058C
:1038800006D007E002EB4202B0FBF2F080B2F6E7AE
:1038900040F001004FF4967251434FF47A72B1FB3D
:1038A000F2F140F40040C6E741F2883101600021A6
:1038B00081804BF6FF72C280018141814FF48041CB
:1038C000818170470029018802D041F0010101E0A7
:1038D00021F00101018070470029818802D041F464
:1038E000006101E021F40061818070470029818836
:1038F00002D041F4805101E021F480518180704771
:103900000029018802D041F4807101E021F4807126
:10391000018070470029018802D041F4007101E064
:1039200021F40071018070470029018802D041F420
:10393000806101E021F4806101807047828901F09B
:10394000FE0122F0FE021143818170470029818926
:1039500002D041F0010101E021F0010181817047B5
:103960000029018802D041F0400101E021F040012E
:1039700001807047002A828801D00A4300E08A4310
:103980008280704701827047008AC0B2704712B1CE
:1039900041F0010101E001F0FE010182704708B52C
:1039A00008440090008808BD0029018802D041F435
:1039B000004101E0C1F30E0101807047B1F5006FD5
:1039C000018803D021F400610180704741F4006157
:1039D000FAE7B1F5005F018803D021F400510180BE
:1039E000704741F40051FAE70029018802D041F400
:1039F000805101E021F4805101807047B1F5006FE2
:103A0000018803D021F400610180704741F4006116
:103A1000FAE70029018802D041F0200101E021F0FD
:103A2000200101807047008B000A7047002901883F
:103A300002D041F0100101E021F010010180704737
:103A40000029018803D021F080010180704741F0F6
:103A50008001FAE7B1F5804F818B02D021F48041DB
:103A600001E041F480418183704702460020938A3F
:103A7000128B43EA024323F07F42914300D101209D
:103A80007047818A008B41EA004121F07F407047F6
:103A90000CB50246002000920A0F21F07F410192EE
:103AA00002D0009A143202E0009A090C18320092F7
:103AB00012680A4200D001200CBDC94381827047C0
:103AC00010B5034600209A884FF4E06404EA1144DC
:103AD0009B8A224021F07F410B4202D0002A00D075
:103AE000012010BDC943818270470000005400408E
:103AF00040420F00A08601000D49086070470C4944
:103B0000486070470A498860704709494AF6AA2008
:103B10000860704706494CF6CC4008607047044A7C
:103B200001460020D2680A4200D001207047000000
:103B300000300040A448016841F001010160416883
:103B4000A24A114041600168A14A11400160016828
:103B500021F480210160416821F4FE0141604FF4AD
:103B60001F018160704798490A6822F480320A6018
:103B70000A6822F480220A60B0F5803F07D0B0F5D1
:103B8000802F03D1086840F4A020086070470868BF
:103B900040F48030F9E70246002053098A49012B9E
:103BA0000AD0022B0AD0496A02F01F020123934077
:103BB0000B4200D0012070470968F5E7096AF3E776
:103BC00018B500204FF4A06400903120FFF7E3FF08
:103BD0000099491C0091A14201D00028F5D0312064
:103BE000FFF7D9FF002800D0012018BD76490A68E8
:103BF00022F0F80242EAC000086070477549086088
:103C00007047714A5368084323F47C13184350608B
:103C100070477049086670476B4A516821F003018C
:103C20000143516070476848406800F00C007047DD
:103C3000654A516821F0F001014351607047624AC2
:103C4000516821F4E0610143516070475E494A6860
:103C500022F4605242EAC000486070475A4A002984
:103C6000517A01D0014300E08143517270475949B4
:103C7000C1F8D8007047544A516821F440410143CB
:103C8000516070475049002281F8202081F820209F
:103C9000012802D0042802D1052081F820007047B5
:103CA0004D490860704748490A6A02430A627047F2
:103CB000494944390860704730B543494A6812F0B1
:103CC0000C03464A03D0042B01D0082B21D00260FC
:103CD0004A680F23424C03EA1212A35C0268DA40DE
:103CE00042604B68072505EA1323E35C22FA03F3DD
:103CF00083604B6805EAD323E35CDA40C26049681D
:103D0000032303EA9131231F595CB2FBF1F10161F6
:103D100030BD4A684B6802F470124FF0020413F48D
:103D2000803F04EB924202D04B689B0301D52D4BA0
:103D300000E02A4B5A43CAE7234A0029516901D0BF
:103D4000014300E08143516170471F4A0029916996
:103D500001D0014300E08143916170471A4A002974
:103D6000D16901D0014300E08143D1617047164A17
:103D70000029D16801D0014300E08143D160704740
:103D8000114A0029116901D0014300E0814311610A
:103D9000704711494039086070470E49C864704740
:103DA0000949C87170470848416A41F08071416211
:103DB0007047054A0146002092680A4200D001205F
:103DC0007047014988727047001002400000FFF8F8
:103DD000FFFFF6FE000042428004424200127A00D9
:103DE000B804002000093D00F94910B5884202D10D
:103DF0000121C41486E0B0F1804F09D0F549884212
:103E00000DD101210220FFF7BBFF0021022064E059
:103E100001210846FFF7B4FF002101205DE0EE49D3
:103E2000884206D101210420FFF7AAFF00210420C7
:103E300053E0EA49884206D101210820FFF7A0FF9C
:103E40000021082049E0E649884206D101211020DE
:103E5000FFF796FF002110203FE0E249884206D19B
:103E600001212020FFF78CFF0021202035E0DE49D2
:103E7000884202D10121441444E0DC49884202D145
:103E80000121CC043EE0DA49884202D101210C052F
:103E900038E0D849884202D101214C0532E0D649A8
:103EA000884206D101214020FFF76AFF002140200F
:103EB00013E0D249884206D101218020FFF760FF3C
:103EC0000021802009E0CE4988420AD184150121D1
:103ED0002046FFF755FF00212046BDE81040FFF7C0
:103EE0004FBFC849884202D101210C040AE0C649EB
:103EF000884202D101214C0404E0C44988420AD11D
:103F000001218C042046FFF732FF2046BDE8104017
:103F10000021FFF72CBF10BD30B50288AC4BB24C6E
:103F200098420DD0A0420BD0B0F1804F08D0A94DDF
:103F3000A84205D0A84DA84202D0A84DA84203D15E
:103F400022F070054A882A43A54DA84206D0A54D07
:103F5000A84203D022F44075CA882A4302808A8886
:103F600082850A88028598420AD0A04208D0A54AD4
:103F7000904205D0A44A904202D0A44A904201D176
:103F8000097A01860121818230BD30B5028C22F090
:103F900001020284028C8388048B22F0020224F046
:103FA00073050C882C430D8915434A882A43884D94
:103FB000A8420BD08C4DA84208D0924DA84205D003
:103FC000914DA84202D0914DA8420DD122F0080592
:103FD0004A8923F440732A4322F004058A882A433D
:103FE0008D891D43CB892B4383800483C9888186B7
:103FF000028430BD70B5028C22F010020284028C63
:104000008488038B0D8823F4E6464FF6FF7303EA9A
:10401000052535430E8922F0200203EA06161643D1
:104020004A8803EA02123243694EB04202D06E4E11
:10403000B04215D122F080064A8924F4406403EA94
:104040000212324322F040068A8803EA0212324307
:104050008E8903EA86062643CC8903EA8404344326
:1040600084800583C9880187028470BD70B5028C85
:1040700022F480720284028C8488838B0D8823F062
:1040800073031D4322F400730E894FF6FF7202EA98
:1040900006261E434B8802EA032333434C4EB042AC
:1040A00002D0514EB04215D123F400664B8924F45E
:1040B000405402EA0323334323F480668B8802EAE8
:1040C000032333438E8902EA06162643CC8902EA8B
:1040D0000414344384808583C9888187038470BD38
:1040E00070B5028C22F480520284048C8288838B07
:1040F0000D8823F4E6464FF6FF7303EA05253543A2
:1041000024F400560C8903EA043434434E8803EA4D
:10411000063626432E4CA04202D0334CA04205D195
:1041200022F480448A8903EA8212224382808583B2
:10413000C988A0F84010068470BD828B22F44062CA
:104140008283828B4FF6FF7303EA01210A43828345
:104150007047828B22F00C028283828B0A43828317
:104160007047028B22F440620283028B4FF6FF738A
:1041700003EA01210A4302837047F0B5048C24F05E
:1041800010040484078B048C4FF6FF7527F47347E3
:1041900005EA03333B4305EA02221A430C4B05EAC6
:1041A000011698420ED0104B98420BD0B0F1804FC0
:1041B00008D0084B984205D0074B984202D0074BD5
:1041C000984225D124F02001314341F0100124E030
:1041D000002C01400004004000080040000C00409A
:1041E000001000400014004000340140004C014029
:1041F000005001400054014000180040001C0040E5
:1042000000200040004001400044014000480140BF
:1042100024F0A0030B4343F0100102830184F0BD9E
:10422000028B22F00C020283028B0A430283704746
:1042300070B5048C24F001040484058B048C4FF6C3
:10424000FF7606EA0313134325F0F305F94A2B43DF
:1042500090420ED0F84A90420BD0B0F1804F08D077
:10426000F64A904205D0F64A904202D0F54A904272
:1042700002D124F0020201E024F00A020A4342F0D3
:1042800001010383018470BD2DE9F05F0D460446F2
:104290000888E84FDFF8A0C3DFF8A0834988AA8820
:1042A0002B894FF0804960B3042832D04FF6FF7E4F
:1042B000082836D0208C9B4620F480502084A38B85
:1042C000268C704600EA022223F473431A4300EA64
:1042D0000B3010430EEA013EBC420BD0644509D0BE
:1042E0004C4507D0444505D0D54A944202D0D54B21
:1042F0009C4245D126F4005141EA0E0141F480511F
:1043000043E02046FFF794FFE9882046BDE8F05FD0
:1043100086E72046FFF731FFE9882046BDE8F05FD9
:104320001FE7208C20F480702084B4F81CA0208C1F
:104330000EEA031313432AF0F30A0EEA012B43EAB1
:104340000A03BC420BD0644509D04C4507D0444514
:1043500005D0BB4A944202D0BA4A944204D120F418
:10436000007040EA0B0002E020F42060084340F4B3
:104370008070A3832084E9882046BDE8F05FE8E6EA
:1043800026F402420A4342F48051A083204621844D
:10439000E988BDE8F05FD0E62DE9F0410C46002643
:1043A00049880746012501B90226A288012A00D1C1
:1043B0000225208823890028384610D0FFF7DDFE2B
:1043C000E1883846FFF7CDFE23892A463146384634
:1043D000FFF72EFFE1883846BDE8F04120E7FFF700
:1043E00027FFE1883846FFF71BFF23892A4631461D
:1043F0003846FFF7C2FEE1883846BDE8F041B0E636
:1044000010B50A884B88CC881A438B8823431A43FB
:104410000B891A434B8989891A430A43A0F844201F
:1044200010BD4FF6FF71818000210180C180418065
:10443000017270470021018041808180C18001812B
:1044400041818181C1817047002101804180012229
:104450008280C1800181704700210180418081807C
:10446000C18001814181818170470029018802D08A
:1044700041F0010101E021F00101018070470029B4
:1044800030F8441F02D041F4004101E0C1F30E01B5
:1044900001807047002A828901D00A4300E08A43E4
:1044A00082817047818270471143A0F8481070479D
:1044B000002A828901D00A4300E08A438281704742
:1044C000018921F0070101817047028922F0700201
:1044D0000A430281704700B50346FFF7F6FF1889CB
:1044E00040F00700188100BD70B516460D466029E2
:1044F00004464FF0010231460AD0FFF799FE2946E3
:104500002046FFF7E2FF208940F00700208170BDC0
:10451000FFF733FEF3E730B504894FF6FF7505EA80
:1045200003231343E4B20B432343038130BD10B58F
:104530000446FFF7F0FF208940F07700208110BD8E
:1045400010B50446FFF7E7FF208940F48040208142
:1045500010BD018582827047028822F070020A43F2
:104560000280704770B50589048B068C25F007051D
:104570000D434FF6FC410C4040F201110C434FF645
:10458000FF7101EA031126F0220611433143058130
:104590000483018470BD028B22F070020A430283FF
:1045A0007047028B4FF6FF7322F4E04203EA0121C9
:1045B000114301837047828B22F070020A43828389
:1045C0007047828B4FF6FF7322F4E04203EA012129
:1045D0001143818370470029018802D041F0800196
:1045E00001E021F08001018070470029818802D01C
:1045F00041F0040101E021F00401818070470029AD
:10460000818802D041F0080101E021F00801818099
:1046100070470029818802D041F0010101E021F0BA
:10462000010181807047028B22F008020A43028355
:1046300070470000002C014000340140000400409D
:1046400000080040000C0040028B4FF6FF7322F47C
:10465000006203EA012111430183E9E7828B22F022
:1046600008020A438283E3E7828B4FF6FF7322F44A
:10467000006203EA012111438183D9E7028B22F012
:1046800004020A430283D3E7028B4FF6FF7322F43E
:10469000806203EA012111430183C9E7828B22F082
:1046A00004020A438283C3E7828B4FF6FF7322F42E
:1046B000806203EA012111438183B9E7028B22F072
:1046C00080020A430283B3E7028B4FF6FF73C2F303
:1046D0000E0203EA012111430183A9E7828B22F034
:1046E00080020A438283A3E7828B4FF6FF73C2F3F3
:1046F0000E0203EA01211143818399E7028C22F023
:1047000002020A43028493E7028C22F008020A4361
:1047100002848DE7028C4FF6FF7322F0200203EA39
:1047200001111143018483E7028C4FF6FF7322F0DD
:10473000800203EA01111143018479E7028C4FF6EC
:10474000FF7322F4007203EA0121114301846FE731
:10475000028C4FF6FF7322F4006203EA0121114339
:10476000018465E7028C4FF6FF7322F4005203EADE
:104770000131114301845BE710B50123048C8B40A8
:104780009C430484038C8A401343038410BD10B5FA
:104790000423048C8B409C430484038C8A40134381
:1047A000038410BD30B50124058C00F118038C4042
:1047B000A543058489B108290FD0091FC1F34E0014
:1047C0001844016821F4E041016001684FF6FF736D
:1047D00003EA02221143016030BD03EB510001687E
:1047E00021F0700101600168F4E70029018802D01E
:1047F00041F0020101E021F00201018018E70029E7
:10480000018802D041F0040101E021F0040101809F
:104810000EE70029818802D041F0800101E021F0FB
:104820008001818004E7028822F008020280028869
:104830000A430280FCE6828822F07002828082882D
:104840000A438280F4E6028922F00702028102898B
:104850000A430281ECE6028922F080020281028989
:104860000A430281E4E68184E2E68185E0E681860E
:10487000DEE60187DCE68187DAE6A0F84010D7E6BD
:10488000028822F44072028002880A430280CFE646
:10489000808ECDE6008FCBE6808FC9E6B0F8400071
:1048A000C6E6808CC4E6008DC2E602460020128A6D
:1048B0000A4200D00120BBE6C9430182B8E60246A5
:1048C0000020138A92890B4202EA010202D0002AD8
:1048D00000D00120ACE6C9430182A9E6C44910B565
:1048E00088420AD101218C032046FFF740FA204676
:1048F000BDE810400021FFF73ABABE49884202D114
:1049000001214C0410E0BC49884202D101218C04F1
:104910000AE0BA49884202D10121CC0404E0B84936
:1049200088420AD101210C052046FFF729FA2046CA
:10493000BDE810400021FFF723BA10BD30B5044692
:10494000008A85B00D464CF6FF710840E9880143A6
:104950002182A1894EF6F3100140A8882A891043CC
:104960006A890A431043A081A08A4FF6FF4108409C
:10497000A9890143A1826846FFF79EF99C488442B9
:1049800001D1039800E00298A189090400EBC0015D
:1049900001EB0010296801D5490000E08900B0FB57
:1049A000F1F06422B0FBF2F109010B096FF0180578
:1049B0006B4300EB8300A3891D044FF0320306D53F
:1049C00003EBC000B0FBF2F000F0070005E003EBE2
:1049D0000010B0FBF2F000F00F000843208105B09A
:1049E00030BD4FF41651016000218180C1800181EA
:1049F0000C2242818181704710B5038A4FF2FF0279
:104A000013400A884C8822438C88C9880C4322436F
:104A10001A43028210BD0021018041808180C18043
:104A200070470029818902D041F4005101E021F44E
:104A300000518181704710B5C1F3421301F01F048A
:104A40000121A140012B07D0022B07D01430002AEE
:104A5000026805D00A4304E00C30F8E71030F6E7AE
:104A60008A43026010BD002A828A01D00A4300E016
:104A70008A4382827047028A22F00F020282028AEF
:104A80000A4302827047828922F40062828182890D
:104A90000A43828170470029818902D041F00201D6
:104AA00001E021F0020181817047028A22F0200298
:104AB0000282028A0A43028270470029018A02D0D8
:104AC00041F4804101E021F4804101827047C1F34B
:104AD0000801818070478088C0F308007047818991
:104AE00041F0010181817047028BD2B20283028BB7
:104AF00042EA012101837047028B02F47F42028364
:104B0000028B0A43028370470029818A02D041F058
:104B1000200101E021F02001818270470029818A73
:104B200002D041F0100101E021F0100181827047B4
:104B30000029818A02D041F0080101E021F008013A
:104B4000818270470029818902D041F4004101E04F
:104B5000C1F30E01818170470029818A02D041F49E
:104B6000006101E021F4006181827047828A22F0B5
:104B700004028282828A0A43828270470029818AE3
:104B800002D041F0020101E021F002018182704770
:104B90000246002012880A4200D001207047C94313
:104BA0000180704730B501F01F0201240025C1F3D8
:104BB000421304FA02F2012B0FD0022B0FD0838A8A
:104BC0004FEA11210088134204FA01F400EA0400BC
:104BD00001D000B10125284630BD8389F0E7038A62
:104BE000EEE70A0A01219140C943018070470000A5
:104BF000003801400044004000480040004C0040A4
:104C0000005000400648804706480047FEE7FEE7A0
:104C1000FEE7FEE7FEE7FEE7FEE7FEE7FEE7FEE76C
:104C2000C94C0008310100080CB500214B48019126
:104C30000091026842F4803202604FF4A06302687F
:104C400002F400320092019A521C0192009A12B9A9
:104C5000019A9A42F3D10268920333D5012100915F
:104C60003F490A6842F010020A600A6822F0030213
:104C70000A600A6842F002020A60416841604168C5
:104C80004160416841F480614160416821F47C11D8
:104C90004160416841F4E8114160016841F0807170
:104CA000016001688901FCD5416821F00301416080
:104CB000416841F0020141604168C1F3810102296C
:104CC000FAD10CBD00910CBD244810B5016841F02B
:104CD000010101604168234A114041600168224A94
:104CE00011400160016821F480210160416821F4D4
:104CF000FE0141604FF41F018160FFF795FF1B49E2
:104D00004FF00060086010BD144910B54868184A9B
:104D100010F00C03174803D0042B01D0082B0AD045
:104D200002604968134AC1F30311121D515C026805
:104D3000CA40026010BD4A684B6802F470124FF01E
:104D4000020413F4803F04EB924202D04B689B03B1
:104D500001D5094B00E0064B5A43E1E70010024041
:104D6000002002400000FFF8FFFFF6FE08ED00E023
:104D700000127A00C804002000093D002DE9F05F10
:104D80000546002092469B468846064681464024BA
:104D90001BE0284641464746224600F089F9534623
:104DA0005A46C01A914110D311461846224600F0C7
:104DB00070F92D1A67EB01084F46224601200021A9
:104DC00000F067F917EB00094E41201EA4F1010421
:104DD000DFDC484631462A464346BDE8F09FA0F155
:104DE0006101192900D820387047002800DA4042B4
:104DF000704740EA01039B0703D009E008C9121F6E
:104E000008C0042AFAD203E011F8013B00F8013B84
:104E1000521EF9D27047D2B201E000F8012B491EB0
:104E2000FBD270470022F6E710B513460A46044647
:104E30001946FFF7F0FF204610BDF0B480EA0102EA
:104E4000D40F4200B2EB410F02D20246084611468F
:104E50004A0042D0C30DDDB2C1F3C752AD1A202DB6
:104E600035DAC1F3160141F4000204B15242C5F132
:104E7000200602FA06F12A411044B3EBD05F23D09A
:104E8000C4B1012DA0EBC35009DCF0BC4FF00042CF
:104E900002EAC352DBB200F5000000F022B9400084
:104EA00000F1807000EBC350A0F1807040EAD17037
:104EB000490009E0490841EAC071A0EBC35000F580
:104EC0000000400800EBC350F0BC00F001B96142A3
:104ED000012202EB4101001BF6E7F0BC704781F0B4
:104EE0000041AAE780F00040A7E780EA010210B580
:104EF00002F00043400022D04A001FD0010E01EB17
:104F00001261C0F35600C2F3560240F4000042F4AE
:104F10000002A0FB022000047F39140400D0401CD2
:104F200050EA124001D44000491EC2B20C0604EB04
:104F3000D010401C4008802A02D003E0002010BDA1
:104F400020F00100002900DA0020184310BD30B421
:104F500080EA010202F0004530F0004221F00040FA
:104F600013D090B1C30DD40DC2F31601C0F31600D7
:104F7000E41A41F4000140F400027D34914201D36F
:104F8000641C00E04900002C02DA30BC00207047AD
:104F90004FF400000023914201D3891A03434008D3
:104FA0004FEA4101F7D151B1914202D14FF0004196
:104FB00005E002D24FF0010101E06FF0010103EBC7
:104FC000C450284430BC00F083B8C10F80EAE070C0
:104FD0000844CA079623002100F083B896230022D4
:104FE000114600F07EB800F0004220F00040C10DF4
:104FF000C0F3160040F400007F2901DA002070475A
:10500000962903DCC1F19601C84001E09639884039
:10501000002AF4D04042704720F00040C10DC0F398
:10502000160040F400007F2901DA0020704796291D
:1050300003DCC1F19601C84070479639884070473B
:1050400000F0004230F000400AD0C10D01F560715F
:10505000C0F3160042EA0151C208400711437047ED
:1050600000200146704730B50B4601460020202243
:10507000012409E021FA02F59D4205D303FA02F565
:10508000491B04FA02F52844151EA2F10102F1DCC5
:1050900030BD202A04DB203A00FA02F100207047DC
:1050A0009140C2F1200320FA03F319439040704766
:1050B000202A04DB203A21FA02F00021704721FA6D
:1050C00002F3D040C2F120029140084319467047D4
:1050D0000029A8BF7047401C490008BF20F001000C
:1050E000704710B4B0FA80FC00FA0CF050EA0104EA
:1050F00004BF10BC704749B1CCF1200421FA04F47C
:1051000011FA0CF118BF012121430843A3EB0C0154
:10511000CB1D4FEA00614FEA102042BF002010BCB7
:10512000704700EBC35010440029A4BF10BC704767
:10513000401C490008BF20F0010010BC704710B5AA
:1051400041000CD0C0F3C751962908DC7E2909DC48
:1051500006DB410204D000F0004040F07E5010BD5C
:10516000002010BDC1F19604C4F1200100FA01F144
:10517000E040FFF7ADFFA04010BD2DE9FE4F804697
:1051800081EA0300C00F0C46009021F0004123F09B
:105190000045B8EB0200A94105D2404621469046A1
:1051A0001C460B46024623F00040104347D0270D13
:1051B000C7F30A00C3F30A510290401A0190402835
:1051C0006BDAC3F3130040F4801B0098924620B1C1
:1051D0000023D2EB030A63EB0B0B01985946C0F195
:1051E00040025046FFF755FF06460D4650465946C9
:1051F000019A00F08DF910EB08006141002487EA64
:10520000115284EAE7731A4340D0009A62B3019ABC
:10521000012A4FEA075215DC001B61EB02014FF037
:10522000004202EA0752CDE90042001C41F580111C
:1052300032462B4600F08DF903B0BDE8F08F4046B2
:105240002146F9E7001B61EB0201001C41F58013C8
:1052500000185B412018A2F5001747EB030140EA54
:10526000D570B6196D4111E06D084FEA360645EA72
:10527000C0754FEA0752001B61EB0201001C41F5AB
:10528000801149084FEA30000019514132462B463F
:1052900003B0BDE8F04F00F04DB900980122400086
:1052A0000023D0EB020263EBE073009821464FEA43
:1052B000E074B8EB000061EB0401E9E783F0004320
:1052C0005BE781F0004158E72DE9FE4F81EA0304D6
:1052D00004F0004421F0004100944FF0000B23F053
:1052E000004350EA01045ED052EA03045BD0C3F3EA
:1052F0000A54C1F30A552C44A4F2F3340194A0FBE0
:105300000254C1F3130141F48011C3F3130343F4B6
:10531000801301FB024400FB034E840A970A44EA0F
:10532000815447EA8357A4FB076802958D0A05FB61
:1053300007854FEA932C04FB0C542705029D4FEA86
:10534000065847EA1637B5EB08056EEB070C870ED3
:10535000920E47EA811742EA8312A7FB0201B6EBDD
:105360000B0164EB00042B0D43EA0C335E1844EB95
:105370001C50DA465146E7FB0201C5F313044FEA1D
:105380000B3343EA14534FEA0432019C43EA060309
:10539000A4F10C040294009CCDE900B400F0D9F80B
:1053A00003B0BDE8F08F00200146F9E72DE9F04D8C
:1053B00081EA030404F0004B21F0004514464FF04D
:1053C000000A23F0004150EA050220D054EA01020D
:1053D0001DD0C5F30A570246C5F31303C1F31300EA
:1053E000C1F30A5640F4801543F48013A7EB060876
:1053F000101BD64608F2FD3873EB050002D308F106
:10540000010801E092185B41B8F1000F03DA0020B7
:105410000146BDE8F08D00204FF480110646844619
:105420000EE0171B73EB050705D3121B63EB050397
:1054300006434CEA010C49084FEA300092185B41E0
:1054400050EA0107EDD152EA030012D082EA0400CB
:1054500083EA0501084305D0101BAB4106D20122A7
:10546000002306E000224FF0004302E06FF001024B
:1054700053101AEB06004CEB085110EB0A0041EBFD
:105480000B01BDE8F04D00F055B8C1F30A52C1F36D
:10549000130140F2FF3341F480119A4202DA0020F6
:1054A0000146704740F233439A42A2F2334202DC93
:1054B0005242FFF7FDBDFFF7ECBD000030B5041E02
:1054C00071F1000404DB4FF00044404264EB010141
:1054D000141E73F1000405DB1C464FF000435242DA
:1054E00063EB0403994208BF904230BD064C074D60
:1054F00006E0E06840F0010394E8070098471034A4
:10550000AC42F6D3FAF718FEF467000814680008F6
:10551000202A06DBCB17203A41FA02F043EAE07377
:1055200006E041FA02F3D040C2F120029140084364
:105530001946704710B5141E73F1000408DA401CB8
:1055400041F1000192185B411A4301D120F00100A2
:1055500010BD2DE9F04D92469B4611B1B1FA81F292
:1055600002E0B0FA80F220329046FFF792FD044646
:105570000F4640EA0A0041EA0B0153465A460843E7
:1055800013D0114653EA010019D0C8F14002504629
:10559000FFF78EFD05460E46504659464246FFF738
:1055A00078FD084305D0012004E020463946BDE8D7
:1055B000F08D0020054346EAE0762C4337430A98F5
:1055C0006305E40AA0EB08000022FD0A44EA475400
:1055D0000A3002D500200146E9E7010510196941AA
:1055E000DDE9084500196941BDE8F04DA2E770B555
:1055F0008C1810F8015B15F0070301D110F8013B7E
:105600002A1106D110F8012B03E010F8016B01F804
:10561000016B5B1EF9D12B0705D40023521E0DD45C
:1056200001F8013BFAE710F8013BCB1A921C03E0AA
:1056300013F8015B01F8015B521EF9D5A142D8D3E2
:10564000002070BD0FB4084B10B504A902AA03983E
:1056500000F0F8F8044602A9002000F081FC204682
:1056600010BC5DF814FB0000615F00087CB50C0005
:105670001D461646014601D0601E00E00020CDE91F
:105680000010064B6A462946304600F0DBF8002C35
:1056900002D0009A002111707CBD00004B5F000811
:1056A00002E008C8121F08C1002AFAD170477047EB
:1056B000002001E001C1121F002AFBD17047000049
:1056C0002DE9FF5F82B00021DDE90430020DDDF835
:1056D00040B0034318D044F61050A2F2FF324243C8
:1056E0001514119801281FD0A5EB0B00401C5FEA90
:1056F000000A4FF000064E4FDFF83891B046504692
:1057000015D5CAF1000413E0119801244AA3012819
:1057100001D16FEA0B010298119AC0E90031C0E98A
:10572000024206B0BDE8F09FCBF10000DFE704467F
:105730000021404A491842EB0450CDE9001012E024
:10574000E00707D032463B4640464946FFF7BCFDDE
:105750008046894632463B4610461946FFF7B4FD5F
:1057600006460F466410002CEAD1DDE90401DDE9AC
:105770000023BAF1000F06DAFFF7A6FD42464B46BA
:10578000FFF7A2FD05E0FFF711FE42464B46FFF78B
:105790000DFE04460E460022284BFFF78FFE03D86D
:1057A0004FF0FF30014607E00022254B20463146EE
:1057B000FFF7E3FCFFF769FE102409E0002C0ADB89
:1057C0000A220023FFF7DAFA039B30321A55641ECF
:1057D00050EA0102F2D1641C039AC4F1110314448B
:1057E000119A012A03D0012208430DD10AE008438F
:1057F00004D000204FF0110B119072E7A3EB0B05C2
:105800006D1E0DE05B4504DD4FF0000205F1010562
:1058100004E003DA4FF00002A5F10105002AECD004
:1058200002981199C0E90231C0E9004579E700000A
:10583000000014400000F03F300000000000F04382
:105840000000E03F2DE9FF4F95B09A468846064696
:105850000025EEE1252877D100242746F94A0121C9
:10586000039400E0044316F8013F203B01FA03F0E3
:105870001042F7D130782A2811D06FF02F033078FA
:10588000A0F13002092A16D8039A44F0020402EB70
:10589000820203EB42021044761C0390EFE758F8B3
:1058A000042B0392002A03DA504244F4005403907C
:1058B00044F00204761C30782E2816D116F8010F19
:1058C00044F004042A280DD06FF02F023078A0F1A4
:1058D0003003092B09D807EB870302EB4303C718F2
:1058E000761CF3E758F8047B761C30786C280FD0D0
:1058F00006DC4C2817D068280DD06A2814D104E0A3
:10590000742810D07A280FD10DE044F400140AE076
:1059100044F4801401E044F440147278824202D1CD
:1059200004F58014761C761C307866280BD013DCC6
:10593000582877D009DC002875D04528F6D04628AD
:10594000F4D047281AD193E118E0632835D06428B1
:1059500079D0652812D18BE1702873D008DC6728D4
:10596000F1D069286FD06E280DD06F2806D1ACE039
:1059700073282CD0752874D0782853D052461799A4
:1059800090476D1C54E1C4F30250022809D003284B
:105990000DD0D8F8001004280DD00D6008F10408CF
:1059A00046E1D8F80010EA17C1E90052F6E7D8F846
:1059B00000100D80F2E70D70F0E718F8041B8DF869
:1059C000001000208DF80100EB46012003E058F89C
:1059D00004BB4FF0FF3061074FF0000102D40DE02F
:1059E00009F101018946B9420FDA8145F8DB1BF85C
:1059F00009100029F4D108E009F10101894681422A
:105A0000FADB1BF809100029F6D103985346A0EBE6
:105A1000090721463846179A00F080FA284400EB1F
:105A2000090507E044E008E10DE01BF8010B5246D0
:105A300017999047B9F10109F7D2534621463846E4
:105A4000179AF2E039E00A21C4F302524FF0000B3A
:105A50000091022A06D058F8040BC117032A09D076
:105A60000AE023E008F1070020F00702F2E8020153
:105A7000904605E000B2C117042A01D140B2C11717
:105A8000002906DA0A460021404261EB02012D227C
:105A900002E0220504D52B228DF80420012203E028
:105AA000E20701D02022F7E7914657E00A2100E003
:105AB00010214FF0000B00910BE010214FF0000B74
:105AC00044F004040827009103E008204FF0000B85
:105AD0000090C4F30252022A05D058F8040B0021AA
